{
  "_format": "hh-sol-artifact-1",
  "contractName": "AAVEYieldStrategy",
  "sourceName": "contracts/AAVEYieldStrategy.sol",
  "abi": [
    {
      "inputs": [
        {
          "internalType": "address",
          "name": "_aaveAddressesProvider",
          "type": "address"
        },
        {
          "internalType": "address",
          "name": "_underlyingToken",
          "type": "address"
        },
        {
          "internalType": "address",
          "name": "_aToken",
          "type": "address"
        }
      ],
      "stateMutability": "nonpayable",
      "type": "constructor"
    },
    {
      "inputs": [],
      "name": "AAVE_ADDRESSES_PROVIDER",
      "outputs": [
        {
          "internalType": "contract IAaveV3LendingPoolAddressesProvider",
          "name": "",
          "type": "address"
        }
      ],
      "stateMutability": "view",
      "type": "function"
    },
    {
      "inputs": [],
      "name": "AAVE_DATA_PROVIDER",
      "outputs": [
        {
          "internalType": "contract IAaveV3AaveProtocolDataProvider",
          "name": "",
          "type": "address"
        }
      ],
      "stateMutability": "view",
      "type": "function"
    },
    {
      "inputs": [],
      "name": "AAVE_LENDING_POOL",
      "outputs": [
        {
          "internalType": "contract IAaveV3LendingPool",
          "name": "",
          "type": "address"
        }
      ],
      "stateMutability": "view",
      "type": "function"
    },
    {
      "inputs": [],
      "name": "aToken",
      "outputs": [
        {
          "internalType": "contract IERC20",
          "name": "",
          "type": "address"
        }
      ],
      "stateMutability": "view",
      "type": "function"
    },
    {
      "inputs": [],
      "name": "apy",
      "outputs": [
        {
          "internalType": "uint256",
          "name": "",
          "type": "uint256"
        }
      ],
      "stateMutability": "view",
      "type": "function"
    },
    {
      "inputs": [
        {
          "internalType": "uint256",
          "name": "amount",
          "type": "uint256"
        }
      ],
      "name": "depositToProtocol",
      "outputs": [
        {
          "internalType": "bool",
          "name": "success",
          "type": "bool"
        }
      ],
      "stateMutability": "nonpayable",
      "type": "function"
    },
    {
      "inputs": [],
      "name": "getCurrentBalance",
      "outputs": [
        {
          "internalType": "uint256",
          "name": "",
          "type": "uint256"
        }
      ],
      "stateMutability": "view",
      "type": "function"
    },
    {
      "inputs": [],
      "name": "underlyingToken",
      "outputs": [
        {
          "internalType": "contract IERC20",
          "name": "",
          "type": "address"
        }
      ],
      "stateMutability": "view",
      "type": "function"
    },
    {
      "inputs": [
        {
          "internalType": "uint256",
          "name": "amount",
          "type": "uint256"
        },
        {
          "internalType": "address",
          "name": "to",
          "type": "address"
        }
      ],
      "name": "withdrawFromProtocol",
      "outputs": [
        {
          "internalType": "bool",
          "name": "success",
          "type": "bool"
        }
      ],
      "stateMutability": "nonpayable",
      "type": "function"
    }
  ],
  "bytecode": "0x6101206040523480156200001257600080fd5b5060405162000e8e38038062000e8e8339810160408190526200003591620003af565b6001600160a01b038316620000a55760405162461bcd60e51b815260206004820152602b60248201527f414156455969656c6453747261746567793a2070726f7669646572206164647260448201526a657373206973207a65726f60a81b60648201526084015b60405180910390fd5b6001600160a01b038216620001235760405162461bcd60e51b815260206004820152603360248201527f414156455969656c6453747261746567793a20756e6465726c79696e6720746f60448201527f6b656e2061646472657373206973207a65726f0000000000000000000000000060648201526084016200009c565b6001600160a01b0381166200018d5760405162461bcd60e51b815260206004820152602960248201527f414156455969656c6453747261746567793a2061546f6b656e2061646472657360448201526873206973207a65726f60b81b60648201526084016200009c565b6001600160a01b03808416608081905283821660e052908216610100526040805163026b1d5f60e01b815290516000929163026b1d5f9160048083019260209291908290030181865afa158015620001e9573d6000803e3d6000fd5b505050506040513d601f19601f820116820180604052508101906200020f9190620003f9565b90506001600160a01b0381166200027a5760405162461bcd60e51b815260206004820152602860248201527f414156455969656c6453747261746567793a20676574506f6f6c2072657475726044820152676e6564207a65726f60c01b60648201526084016200009c565b806001600160a01b031660a0816001600160a01b0316815250506000846001600160a01b031663e860accb6040518163ffffffff1660e01b8152600401602060405180830381865afa158015620002d5573d6000803e3d6000fd5b505050506040513d601f19601f82011682018060405250810190620002fb9190620003f9565b90506001600160a01b0381166200037b5760405162461bcd60e51b815260206004820152603460248201527f414156455969656c6453747261746567793a20676574506f6f6c44617461507260448201527f6f76696465722072657475726e6564207a65726f00000000000000000000000060648201526084016200009c565b6001600160a01b031660c052506200041e92505050565b80516001600160a01b0381168114620003aa57600080fd5b919050565b600080600060608486031215620003c557600080fd5b620003d08462000392565b9250620003e06020850162000392565b9150620003f06040850162000392565b90509250925092565b6000602082840312156200040c57600080fd5b620004178262000392565b9392505050565b60805160a05160c05160e051610100516109e0620004ae6000396000818161018f015261055401526000818160e1015281816101e301528181610357015281816104150152818161049b01526106a601526000610141015260008181610168015281816102100152818161032c015281816103e5015281816104d701526106dd01526000609d01526109e06000f3fe608060405234801561001057600080fd5b50600436106100935760003560e01c80637e0bce10116100665780637e0bce101461013c5780638b56046b14610163578063a0c1f15e1461018a578063a5749710146101b1578063d1d8e6b5146101b957600080fd5b806311b2e10e146100985780632495a599146100dc5780633bcfc4b8146101035780635405611914610119575b600080fd5b6100bf7f000000000000000000000000000000000000000000000000000000000000000081565b6040516001600160a01b0390911681526020015b60405180910390f35b6100bf7f000000000000000000000000000000000000000000000000000000000000000081565b61010b6101cc565b6040519081526020016100d3565b61012c610127366004610756565b6102b9565b60405190151581526020016100d3565b6100bf7f000000000000000000000000000000000000000000000000000000000000000081565b6100bf7f000000000000000000000000000000000000000000000000000000000000000081565b6100bf7f000000000000000000000000000000000000000000000000000000000000000081565b61010b61053c565b61012c6101c7366004610787565b6105cc565b6040516335ea6a7560e01b81526001600160a01b037f00000000000000000000000000000000000000000000000000000000000000008116600483015260009182917f000000000000000000000000000000000000000000000000000000000000000016906335ea6a759060240161018060405180830381865afa158015610258573d6000803e3d6000fd5b505050506040513d601f19601f8201168201806040525081019061027c919061083c565b60408101519091506001600160801b031660006b033b2e3c9fd0803ce80000006102a7836064610921565b6102b19190610946565b949350505050565b600080821161030f5760405162461bcd60e51b815260206004820181905260248201527f416d6f756e74206d7573742062652067726561746572207468616e207a65726f60448201526064015b60405180910390fd5b604051636eb1769f60e11b81523060048201526001600160a01b037f0000000000000000000000000000000000000000000000000000000000000000811660248301526000917f00000000000000000000000000000000000000000000000000000000000000009091169063dd62ed3e90604401602060405180830381865afa1580156103a0573d6000803e3d6000fd5b505050506040513d601f19601f820116820180604052508101906103c49190610968565b9050828110156104845760405163095ea7b360e01b81526001600160a01b037f00000000000000000000000000000000000000000000000000000000000000008116600483015260001960248301527f0000000000000000000000000000000000000000000000000000000000000000169063095ea7b3906044016020604051808303816000875af115801561045e573d6000803e3d6000fd5b505050506040513d601f19601f820116820180604052508101906104829190610981565b505b60405163617ba03760e01b81526001600160a01b037f00000000000000000000000000000000000000000000000000000000000000008116600483015260248201859052306044830152600060648301527f0000000000000000000000000000000000000000000000000000000000000000169063617ba03790608401600060405180830381600087803b15801561051b57600080fd5b505af115801561052f573d6000803e3d6000fd5b5060019695505050505050565b6040516370a0823160e01b81523060048201526000907f00000000000000000000000000000000000000000000000000000000000000006001600160a01b0316906370a0823190602401602060405180830381865afa1580156105a3573d6000803e3d6000fd5b505050506040513d601f19601f820116820180604052508101906105c79190610968565b905090565b6000808311806105dd575060001983145b6106395760405162461bcd60e51b815260206004820152602760248201527f416d6f756e74206d7573742062652067726561746572207468616e207a65726f604482015266040dee440dac2f60cb1b6064820152608401610306565b6001600160a01b03821661068f5760405162461bcd60e51b815260206004820152601960248201527f496e76616c696420726563697069656e742061646472657373000000000000006044820152606401610306565b604051631a4ca37b60e21b81526001600160a01b037f0000000000000000000000000000000000000000000000000000000000000000811660048301526024820185905283811660448301527f000000000000000000000000000000000000000000000000000000000000000016906369328dec906064016020604051808303816000875af1158015610726573d6000803e3d6000fd5b505050506040513d601f19601f8201168201806040525081019061074a9190610968565b50600190505b92915050565b60006020828403121561076857600080fd5b5035919050565b6001600160a01b038116811461078457600080fd5b50565b6000806040838503121561079a57600080fd5b8235915060208301356107ac8161076f565b809150509250929050565b604051610180810167ffffffffffffffff811182821017156107e957634e487b7160e01b600052604160045260246000fd5b60405290565b80516001600160801b038116811461080657600080fd5b919050565b805164ffffffffff8116811461080657600080fd5b80516108068161076f565b805160ff8116811461080657600080fd5b6000610180828403121561084f57600080fd5b6108576107b7565b82518152610867602084016107ef565b6020820152610878604084016107ef565b6040820152610889606084016107ef565b606082015261089a608084016107ef565b60808201526108ab60a084016107ef565b60a08201526108bc60c0840161080b565b60c08201526108cd60e08401610820565b60e08201526101006108e0818501610820565b908201526101206108f2848201610820565b90820152610140610904848201610820565b9082015261016061091684820161082b565b908201529392505050565b808202811582820484141761075057634e487b7160e01b600052601160045260246000fd5b60008261096357634e487b7160e01b600052601260045260246000fd5b500490565b60006020828403121561097a57600080fd5b5051919050565b60006020828403121561099357600080fd5b815180151581146109a357600080fd5b939250505056fea264697066735822122090e0f09f185319f030ebedac9b8d9af7a61e35a7ea318ecc6428d98243d48cf664736f6c63430008140033",
  "linkReferences": {},
  "deployedLinkReferences": {}
}