{
  "_format": "hh-sol-artifact-1",
  "contractName": "YieldAggregator",
  "sourceName": "contracts/YieldAggregator.sol",
  "abi": [
    {
      "inputs": [
        {
          "internalType": "address[]",
          "name": "_initialSupportedTokens",
          "type": "address[]"
        }
      ],
      "stateMutability": "nonpayable",
      "type": "constructor"
    },
    {
      "inputs": [
        {
          "internalType": "address",
          "name": "owner",
          "type": "address"
        }
      ],
      "name": "OwnableInvalidOwner",
      "type": "error"
    },
    {
      "inputs": [
        {
          "internalType": "address",
          "name": "account",
          "type": "address"
        }
      ],
      "name": "OwnableUnauthorizedAccount",
      "type": "error"
    },
    {
      "inputs": [],
      "name": "ReentrancyGuardReentrantCall",
      "type": "error"
    },
    {
      "inputs": [
        {
          "internalType": "address",
          "name": "token",
          "type": "address"
        }
      ],
      "name": "SafeERC20FailedOperation",
      "type": "error"
    },
    {
      "anonymous": false,
      "inputs": [
        {
          "indexed": true,
          "internalType": "address",
          "name": "user",
          "type": "address"
        },
        {
          "indexed": true,
          "internalType": "address",
          "name": "token",
          "type": "address"
        },
        {
          "indexed": false,
          "internalType": "uint256",
          "name": "amount",
          "type": "uint256"
        },
        {
          "indexed": true,
          "internalType": "uint256",
          "name": "strategyId",
          "type": "uint256"
        },
        {
          "indexed": false,
          "internalType": "uint256",
          "name": "timestamp",
          "type": "uint256"
        }
      ],
      "name": "Deposit",
      "type": "event"
    },
    {
      "anonymous": false,
      "inputs": [
        {
          "indexed": true,
          "internalType": "address",
          "name": "previousOwner",
          "type": "address"
        },
        {
          "indexed": true,
          "internalType": "address",
          "name": "newOwner",
          "type": "address"
        }
      ],
      "name": "OwnershipTransferred",
      "type": "event"
    },
    {
      "anonymous": false,
      "inputs": [
        {
          "indexed": true,
          "internalType": "uint256",
          "name": "id",
          "type": "uint256"
        },
        {
          "indexed": true,
          "internalType": "address",
          "name": "tokenAddress",
          "type": "address"
        },
        {
          "indexed": false,
          "internalType": "address",
          "name": "strategyAddress",
          "type": "address"
        },
        {
          "indexed": false,
          "internalType": "string",
          "name": "name",
          "type": "string"
        },
        {
          "indexed": false,
          "internalType": "enum IYieldAggregator.StrategyType",
          "name": "strategyType",
          "type": "uint8"
        }
      ],
      "name": "StrategyAdded",
      "type": "event"
    },
    {
      "anonymous": false,
      "inputs": [
        {
          "indexed": true,
          "internalType": "uint256",
          "name": "strategyId",
          "type": "uint256"
        }
      ],
      "name": "StrategyRemoved",
      "type": "event"
    },
    {
      "anonymous": false,
      "inputs": [
        {
          "indexed": true,
          "internalType": "address",
          "name": "tokenAddress",
          "type": "address"
        }
      ],
      "name": "TokenSupported",
      "type": "event"
    },
    {
      "anonymous": false,
      "inputs": [
        {
          "indexed": true,
          "internalType": "address",
          "name": "tokenAddress",
          "type": "address"
        }
      ],
      "name": "TokenUnSupported",
      "type": "event"
    },
    {
      "anonymous": false,
      "inputs": [
        {
          "indexed": true,
          "internalType": "address",
          "name": "user",
          "type": "address"
        },
        {
          "indexed": true,
          "internalType": "address",
          "name": "token",
          "type": "address"
        },
        {
          "indexed": false,
          "internalType": "uint256",
          "name": "amount",
          "type": "uint256"
        },
        {
          "indexed": true,
          "internalType": "uint256",
          "name": "strategyId",
          "type": "uint256"
        },
        {
          "indexed": false,
          "internalType": "uint256",
          "name": "timestamp",
          "type": "uint256"
        }
      ],
      "name": "Withdrawal",
      "type": "event"
    },
    {
      "inputs": [
        {
          "internalType": "uint256",
          "name": "_id",
          "type": "uint256"
        },
        {
          "internalType": "address",
          "name": "_tokenAddress",
          "type": "address"
        },
        {
          "internalType": "address",
          "name": "_strategyAddress",
          "type": "address"
        },
        {
          "internalType": "string",
          "name": "_name",
          "type": "string"
        },
        {
          "internalType": "uint256",
          "name": "_chainId",
          "type": "uint256"
        },
        {
          "internalType": "enum IYieldAggregator.StrategyType",
          "name": "_strategyType",
          "type": "uint8"
        }
      ],
      "name": "addStrategy",
      "outputs": [],
      "stateMutability": "nonpayable",
      "type": "function"
    },
    {
      "inputs": [
        {
          "internalType": "address",
          "name": "_tokenAddress",
          "type": "address"
        }
      ],
      "name": "addSupportedToken",
      "outputs": [],
      "stateMutability": "nonpayable",
      "type": "function"
    },
    {
      "inputs": [
        {
          "internalType": "address",
          "name": "_tokenAddress",
          "type": "address"
        },
        {
          "internalType": "uint256",
          "name": "_amount",
          "type": "uint256"
        },
        {
          "internalType": "uint256",
          "name": "_strategyId",
          "type": "uint256"
        }
      ],
      "name": "deposit",
      "outputs": [],
      "stateMutability": "nonpayable",
      "type": "function"
    },
    {
      "inputs": [],
      "name": "getAllStrategyIds",
      "outputs": [
        {
          "internalType": "uint256[]",
          "name": "",
          "type": "uint256[]"
        }
      ],
      "stateMutability": "view",
      "type": "function"
    },
    {
      "inputs": [
        {
          "internalType": "uint256",
          "name": "_strategyId",
          "type": "uint256"
        }
      ],
      "name": "getStrategyAPY",
      "outputs": [
        {
          "internalType": "uint256",
          "name": "",
          "type": "uint256"
        }
      ],
      "stateMutability": "view",
      "type": "function"
    },
    {
      "inputs": [
        {
          "internalType": "uint256",
          "name": "_strategyId",
          "type": "uint256"
        }
      ],
      "name": "getStrategyInfo",
      "outputs": [
        {
          "components": [
            {
              "internalType": "address",
              "name": "tokenAddress",
              "type": "address"
            },
            {
              "internalType": "address",
              "name": "strategyAddress",
              "type": "address"
            },
            {
              "internalType": "string",
              "name": "name",
              "type": "string"
            },
            {
              "internalType": "uint256",
              "name": "chainId",
              "type": "uint256"
            },
            {
              "internalType": "enum IYieldAggregator.StrategyType",
              "name": "strategyType",
              "type": "uint8"
            },
            {
              "internalType": "bool",
              "name": "isActive",
              "type": "bool"
            }
          ],
          "internalType": "struct IYieldAggregator.StrategyInfo",
          "name": "",
          "type": "tuple"
        }
      ],
      "stateMutability": "view",
      "type": "function"
    },
    {
      "inputs": [
        {
          "internalType": "uint256",
          "name": "_strategyId",
          "type": "uint256"
        },
        {
          "internalType": "address",
          "name": "_user",
          "type": "address"
        },
        {
          "internalType": "address",
          "name": "_tokenAddress",
          "type": "address"
        }
      ],
      "name": "getUserDeposit",
      "outputs": [
        {
          "internalType": "uint256",
          "name": "",
          "type": "uint256"
        }
      ],
      "stateMutability": "view",
      "type": "function"
    },
    {
      "inputs": [
        {
          "internalType": "address",
          "name": "",
          "type": "address"
        }
      ],
      "name": "isSupportedToken",
      "outputs": [
        {
          "internalType": "bool",
          "name": "",
          "type": "bool"
        }
      ],
      "stateMutability": "view",
      "type": "function"
    },
    {
      "inputs": [],
      "name": "owner",
      "outputs": [
        {
          "internalType": "address",
          "name": "",
          "type": "address"
        }
      ],
      "stateMutability": "view",
      "type": "function"
    },
    {
      "inputs": [
        {
          "internalType": "uint256",
          "name": "_strategyId",
          "type": "uint256"
        }
      ],
      "name": "removeStrategy",
      "outputs": [],
      "stateMutability": "nonpayable",
      "type": "function"
    },
    {
      "inputs": [
        {
          "internalType": "address",
          "name": "_tokenAddress",
          "type": "address"
        }
      ],
      "name": "removeSupportedToken",
      "outputs": [],
      "stateMutability": "nonpayable",
      "type": "function"
    },
    {
      "inputs": [],
      "name": "renounceOwnership",
      "outputs": [],
      "stateMutability": "nonpayable",
      "type": "function"
    },
    {
      "inputs": [
        {
          "internalType": "uint256",
          "name": "",
          "type": "uint256"
        }
      ],
      "name": "strategies",
      "outputs": [
        {
          "internalType": "address",
          "name": "tokenAddress",
          "type": "address"
        },
        {
          "internalType": "address",
          "name": "strategyAddress",
          "type": "address"
        },
        {
          "internalType": "string",
          "name": "name",
          "type": "string"
        },
        {
          "internalType": "uint256",
          "name": "chainId",
          "type": "uint256"
        },
        {
          "internalType": "enum IYieldAggregator.StrategyType",
          "name": "strategyType",
          "type": "uint8"
        },
        {
          "internalType": "bool",
          "name": "isActive",
          "type": "bool"
        }
      ],
      "stateMutability": "view",
      "type": "function"
    },
    {
      "inputs": [
        {
          "internalType": "uint256",
          "name": "",
          "type": "uint256"
        }
      ],
      "name": "strategyIds",
      "outputs": [
        {
          "internalType": "uint256",
          "name": "",
          "type": "uint256"
        }
      ],
      "stateMutability": "view",
      "type": "function"
    },
    {
      "inputs": [
        {
          "internalType": "address",
          "name": "newOwner",
          "type": "address"
        }
      ],
      "name": "transferOwnership",
      "outputs": [],
      "stateMutability": "nonpayable",
      "type": "function"
    },
    {
      "inputs": [
        {
          "internalType": "address",
          "name": "",
          "type": "address"
        },
        {
          "internalType": "address",
          "name": "",
          "type": "address"
        },
        {
          "internalType": "uint256",
          "name": "",
          "type": "uint256"
        }
      ],
      "name": "userDeposits",
      "outputs": [
        {
          "internalType": "uint256",
          "name": "",
          "type": "uint256"
        }
      ],
      "stateMutability": "view",
      "type": "function"
    },
    {
      "inputs": [
        {
          "internalType": "address",
          "name": "_tokenAddress",
          "type": "address"
        },
        {
          "internalType": "uint256",
          "name": "_amount",
          "type": "uint256"
        },
        {
          "internalType": "uint256",
          "name": "_strategyId",
          "type": "uint256"
        }
      ],
      "name": "withdraw",
      "outputs": [],
      "stateMutability": "nonpayable",
      "type": "function"
    }
  ],
  "bytecode": "0x60806040523480156200001157600080fd5b506040516200190d3803806200190d8339810160408190526200003491620001c4565b33806200005b57604051631e4fbdf760e01b81526000600482015260240160405180910390fd5b620000668162000141565b506001805560005b8151811015620001395760016005600084848151811062000093576200009362000296565b60200260200101516001600160a01b03166001600160a01b0316815260200190815260200160002060006101000a81548160ff021916908315150217905550818181518110620000e757620000e762000296565b60200260200101516001600160a01b03167fea3145306a87baeba6bb1a8b5c8d3744f840a81cb436b3509f64fc978600cdfb60405160405180910390a2806200013081620002ac565b9150506200006e565b5050620002d4565b600080546001600160a01b038381166001600160a01b0319831681178455604051919092169283917f8be0079c531659141344cd1fd0a4f28419497f9722a3daafe3b4186f6b6457e09190a35050565b634e487b7160e01b600052604160045260246000fd5b80516001600160a01b0381168114620001bf57600080fd5b919050565b60006020808385031215620001d857600080fd5b82516001600160401b0380821115620001f057600080fd5b818501915085601f8301126200020557600080fd5b8151818111156200021a576200021a62000191565b8060051b604051601f19603f8301168101818110858211171562000242576200024262000191565b6040529182528482019250838101850191888311156200026157600080fd5b938501935b828510156200028a576200027a85620001a7565b8452938501939285019262000266565b98975050505050505050565b634e487b7160e01b600052603260045260246000fd5b600060018201620002cd57634e487b7160e01b600052601160045260246000fd5b5060010190565b61162980620002e46000396000f3fe608060405234801561001057600080fd5b506004361061010b5760003560e01c80638da5cb5b116100a2578063ca1940bd11610071578063ca1940bd14610273578063d574ea3d14610286578063db089e79146102ab578063f2fde38b146102cb578063fe10a731146102de57600080fd5b80638da5cb5b1461021f578063b5c5f6721461023a578063b77318f51461024d578063c0cbbca61461026057600080fd5b80636d69fcaf116100de5780636d69fcaf146101af578063702984a8146101c2578063715018a614610204578063763191901461020c57600080fd5b80630efe6a8b14610110578063167f8d7214610125578063240028e8146101695780632dc1eaf01461019c575b600080fd5b61012361011e366004611079565b6102f3565b005b6101566101333660046110ac565b600460209081526000938452604080852082529284528284209052825290205481565b6040519081526020015b60405180910390f35b61018c6101773660046110e8565b60056020526000908152604090205460ff1681565b6040519015158152602001610160565b6101566101aa366004611103565b610587565b6101236101bd3660046110e8565b6105a8565b6101566101d036600461111c565b6001600160a01b03918216600090815260046020908152604080832093909416825291825282812093815292905290205490565b6101236105fc565b61012361021a3660046110e8565b610610565b6000546040516001600160a01b039091168152602001610160565b610123610248366004611079565b610661565b61015661025b366004611103565b610899565b61012361026e366004611103565b6109b6565b61012361028136600461117d565b610a5e565b610299610294366004611103565b610be8565b604051610160969594939291906112f0565b6102be6102b9366004611103565b610cbb565b6040516101609190611344565b6101236102d93660046110e8565b610e11565b6102e6610e4f565b60405161016091906113b5565b6102fb610ea7565b600081815260026020526040902060040154610100900460ff1661035c5760405162461bcd60e51b81526020600482015260136024820152725374726174656779206e6f742061637469766560681b60448201526064015b60405180910390fd5b600082116103ac5760405162461bcd60e51b815260206004820181905260248201527f416d6f756e74206d7573742062652067726561746572207468616e207a65726f6044820152606401610353565b6001600160a01b03831660009081526005602052604090205460ff1661041f5760405162461bcd60e51b815260206004820152602260248201527f5969656c6441676772656761746f723a20556e737570706f7274656420746f6b60448201526132b760f11b6064820152608401610353565b6104346001600160a01b038416333085610ed1565b3360009081526004602090815260408083206001600160a01b038716845282528083208484529091528120805484929061046f90849061140f565b90915550506040805183815242602082015282916001600160a01b0386169133917f4e2ca0515ed1aef1395f66b5303bb5d6f1bf9d61a353fa53f73f8ac9973fa9f6910160405180910390a460008181526002602052604090206001600482015460ff1660018111156104e4576104e46112b8565b03610578576001810154610505906001600160a01b03868116911685610f3e565b6001810154604051635405611960e01b8152600481018590526001600160a01b03909116906354056119906024016020604051808303816000875af1158015610552573d6000803e3d6000fd5b505050506040513d601f19601f820116820180604052508101906105769190611428565b505b5061058260018055565b505050565b6003818154811061059757600080fd5b600091825260209091200154905081565b6105b0610f6f565b6001600160a01b038116600081815260056020526040808220805460ff19166001179055517fea3145306a87baeba6bb1a8b5c8d3744f840a81cb436b3509f64fc978600cdfb9190a250565b610604610f6f565b61060e6000610f9c565b565b610618610f6f565b6001600160a01b038116600081815260056020526040808220805460ff19169055517f8332d668d0b624d38bee2d36dfea84b188b0bccd2c918bf27e6d2ec787744c0a9190a250565b610669610ea7565b600082116106b95760405162461bcd60e51b815260206004820181905260248201527f416d6f756e74206d7573742062652067726561746572207468616e207a65726f6044820152606401610353565b3360009081526004602090815260408083206001600160a01b0387168452825280832084845290915290205482111561074c5760405162461bcd60e51b815260206004820152602f60248201527f5969656c6441676772656761746f723a20496e73756666696369656e7420646560448201526e706f73697465642062616c616e636560881b6064820152608401610353565b60008181526002602052604090206001600482015460ff166001811115610775576107756112b8565b036107f357600181015460405163d1d8e6b560e01b8152600481018590523060248201526001600160a01b039091169063d1d8e6b5906044016020604051808303816000875af11580156107cd573d6000803e3d6000fd5b505050506040513d601f19601f820116820180604052508101906107f19190611428565b505b3360009081526004602090815260408083206001600160a01b038816845282528083208584529091528120805485929061082e90849061144a565b9091555061084890506001600160a01b0385163385610f3e565b6040805184815242602082015283916001600160a01b0387169133917f0373e649c2cd6407bd569d5c66304cce4b4977c361734b811045f83c7bfe8c8b910160405180910390a45061058260018055565b60008181526002602052604081206001600482015460ff1660018111156108c2576108c26112b8565b03610947578060010160009054906101000a90046001600160a01b03166001600160a01b0316633bcfc4b86040518163ffffffff1660e01b8152600401602060405180830381865afa15801561091c573d6000803e3d6000fd5b505050506040513d601f19601f82011682018060405250810190610940919061145d565b9392505050565b6000600482015460ff166001811115610962576109626112b8565b036109705750600092915050565b60405162461bcd60e51b8152602060048201526015602482015274556e6b6e6f776e207374726174656779207479706560581b6044820152606401610353565b50919050565b6109be610f6f565b600081815260026020526040902060040154610100900460ff16610a1a5760405162461bcd60e51b81526020600482015260136024820152725374726174656779206e6f742061637469766560681b6044820152606401610353565b600081815260026020526040808220600401805461ff00191690555182917fd75105a2aa4d0e369051dafafb95bda6d8633cb084ab8f4db5ebc096f880f54591a250565b610a66610f6f565b6040518060c00160405280866001600160a01b03168152602001856001600160a01b03168152602001848152602001838152602001826001811115610aad57610aad6112b8565b81526001602091820181905260008981526002808452604091829020855181546001600160a01b03199081166001600160a01b039283161783559587015194820180549096169416939093179093558301519091820190610b0e90826114f8565b5060608201516003820155608082015160048201805460ff191660018381811115610b3b57610b3b6112b8565b021790555060a09190910151600490910180549115156101000261ff0019909216919091179055600380546001810182556000919091527fc2575a0e9e593c00f959f8c92f12db2869c3395a3b0502d05e2516446f71f85b018690556040516001600160a01b0386169087907f43346780176ce4554748b86fe802da142cf51f130fcdd37ff34af6b624c85d1490610bd8908890889087906115b8565b60405180910390a3505050505050565b60026020819052600091825260409091208054600182015492820180546001600160a01b03928316949092169291610c1f90611476565b80601f0160208091040260200160405190810160405280929190818152602001828054610c4b90611476565b8015610c985780601f10610c6d57610100808354040283529160200191610c98565b820191906000526020600020905b815481529060010190602001808311610c7b57829003601f168201915b50505050600383015460049093015491929160ff80821692506101009091041686565b6040805160c08101825260008082526020820181905260609282018390529181018290526080810182905260a0810191909152600082815260026020818152604092839020835160c08101855281546001600160a01b0390811682526001830154169281019290925291820180549193840191610d3790611476565b80601f0160208091040260200160405190810160405280929190818152602001828054610d6390611476565b8015610db05780601f10610d8557610100808354040283529160200191610db0565b820191906000526020600020905b815481529060010190602001808311610d9357829003601f168201915b505050918352505060038201546020820152600482015460409091019060ff166001811115610de157610de16112b8565b6001811115610df257610df26112b8565b815260049190910154610100900460ff16151560209091015292915050565b610e19610f6f565b6001600160a01b038116610e4357604051631e4fbdf760e01b815260006004820152602401610353565b610e4c81610f9c565b50565b60606003805480602002602001604051908101604052809291908181526020018280548015610e9d57602002820191906000526020600020905b815481526020019060010190808311610e89575b5050505050905090565b600260015403610eca57604051633ee5aeb560e01b815260040160405180910390fd5b6002600155565b6040516001600160a01b038481166024830152838116604483015260648201839052610f389186918216906323b872dd906084015b604051602081830303815290604052915060e01b6020820180516001600160e01b038381831617835250505050610fec565b50505050565b6040516001600160a01b0383811660248301526044820183905261058291859182169063a9059cbb90606401610f06565b6000546001600160a01b0316331461060e5760405163118cdaa760e01b8152336004820152602401610353565b600080546001600160a01b038381166001600160a01b0319831681178455604051919092169283917f8be0079c531659141344cd1fd0a4f28419497f9722a3daafe3b4186f6b6457e09190a35050565b600080602060008451602086016000885af18061100f576040513d6000823e3d81fd5b50506000513d91508115611027578060011415611034565b6001600160a01b0384163b155b15610f3857604051635274afe760e01b81526001600160a01b0385166004820152602401610353565b80356001600160a01b038116811461107457600080fd5b919050565b60008060006060848603121561108e57600080fd5b6110978461105d565b95602085013595506040909401359392505050565b6000806000606084860312156110c157600080fd5b6110ca8461105d565b92506110d86020850161105d565b9150604084013590509250925092565b6000602082840312156110fa57600080fd5b6109408261105d565b60006020828403121561111557600080fd5b5035919050565b60008060006060848603121561113157600080fd5b833592506111416020850161105d565b915061114f6040850161105d565b90509250925092565b634e487b7160e01b600052604160045260246000fd5b80356002811061107457600080fd5b60008060008060008060c0878903121561119657600080fd5b863595506111a66020880161105d565b94506111b46040880161105d565b9350606087013567ffffffffffffffff808211156111d157600080fd5b818901915089601f8301126111e557600080fd5b8135818111156111f7576111f7611158565b604051601f8201601f19908116603f0116810190838211818310171561121f5761121f611158565b816040528281528c602084870101111561123857600080fd5b8260208601602083013760006020848301015280975050505050506080870135915061126660a0880161116e565b90509295509295509295565b6000815180845260005b818110156112985760208185018101518683018201520161127c565b506000602082860101526020601f19601f83011685010191505092915050565b634e487b7160e01b600052602160045260246000fd5b600281106112ec57634e487b7160e01b600052602160045260246000fd5b9052565b6001600160a01b0387811682528616602082015260c06040820181905260009061131c90830187611272565b905084606083015261133160808301856112ce565b82151560a0830152979650505050505050565b60208152600060018060a01b0380845116602084015280602085015116604084015250604083015160c0606084015261138060e0840182611272565b905060608401516080840152608084015161139e60a08501826112ce565b5060a0840151151560c08401528091505092915050565b6020808252825182820181905260009190848201906040850190845b818110156113ed578351835292840192918401916001016113d1565b50909695505050505050565b634e487b7160e01b600052601160045260246000fd5b80820180821115611422576114226113f9565b92915050565b60006020828403121561143a57600080fd5b8151801515811461094057600080fd5b81810381811115611422576114226113f9565b60006020828403121561146f57600080fd5b5051919050565b600181811c9082168061148a57607f821691505b6020821081036109b057634e487b7160e01b600052602260045260246000fd5b601f82111561058257600081815260208120601f850160051c810160208610156114d15750805b601f850160051c820191505b818110156114f0578281556001016114dd565b505050505050565b815167ffffffffffffffff81111561151257611512611158565b611526816115208454611476565b846114aa565b602080601f83116001811461155b57600084156115435750858301515b600019600386901b1c1916600185901b1785556114f0565b600085815260208120601f198616915b8281101561158a5788860151825594840194600190910190840161156b565b50858210156115a85787850151600019600388901b60f8161c191681555b5050505050600190811b01905550565b6001600160a01b03841681526060602082018190526000906115dc90830185611272565b90506115eb60408301846112ce565b94935050505056fea26469706673582212209d2109d3ba3deb7174df3b9e61c2749c85a9331dbf62ec3829a88af89aa63b7f64736f6c63430008140033",
  "linkReferences": {},
  "deployedLinkReferences": {}
}