{
  "_format": "hh-sol-artifact-1",
  "contractName": "YieldAggregator",
  "sourceName": "contracts/YieldAggregator.sol",
  "abi": [
    {
      "inputs": [
        {
          "internalType": "address[]",
          "name": "_initialSupportedTokens",
          "type": "address[]"
        }
      ],
      "stateMutability": "nonpayable",
      "type": "constructor"
    },
    {
      "inputs": [
        {
          "internalType": "address",
          "name": "owner",
          "type": "address"
        }
      ],
      "name": "OwnableInvalidOwner",
      "type": "error"
    },
    {
      "inputs": [
        {
          "internalType": "address",
          "name": "account",
          "type": "address"
        }
      ],
      "name": "OwnableUnauthorizedAccount",
      "type": "error"
    },
    {
      "inputs": [],
      "name": "ReentrancyGuardReentrantCall",
      "type": "error"
    },
    {
      "inputs": [
        {
          "internalType": "address",
          "name": "token",
          "type": "address"
        }
      ],
      "name": "SafeERC20FailedOperation",
      "type": "error"
    },
    {
      "anonymous": false,
      "inputs": [
        {
          "indexed": true,
          "internalType": "address",
          "name": "user",
          "type": "address"
        },
        {
          "indexed": true,
          "internalType": "address",
          "name": "token",
          "type": "address"
        },
        {
          "indexed": false,
          "internalType": "uint256",
          "name": "amount",
          "type": "uint256"
        },
        {
          "indexed": true,
          "internalType": "uint256",
          "name": "strategyId",
          "type": "uint256"
        },
        {
          "indexed": false,
          "internalType": "uint256",
          "name": "timestamp",
          "type": "uint256"
        }
      ],
      "name": "Deposit",
      "type": "event"
    },
    {
      "anonymous": false,
      "inputs": [
        {
          "indexed": true,
          "internalType": "address",
          "name": "previousOwner",
          "type": "address"
        },
        {
          "indexed": true,
          "internalType": "address",
          "name": "newOwner",
          "type": "address"
        }
      ],
      "name": "OwnershipTransferred",
      "type": "event"
    },
    {
      "anonymous": false,
      "inputs": [
        {
          "indexed": true,
          "internalType": "uint256",
          "name": "id",
          "type": "uint256"
        },
        {
          "indexed": true,
          "internalType": "address",
          "name": "tokenAddress",
          "type": "address"
        },
        {
          "indexed": false,
          "internalType": "address",
          "name": "strategyAddress",
          "type": "address"
        },
        {
          "indexed": false,
          "internalType": "string",
          "name": "name",
          "type": "string"
        },
        {
          "indexed": false,
          "internalType": "enum YieldAggregator.StrategyType",
          "name": "strategyType",
          "type": "uint8"
        }
      ],
      "name": "StrategyAdded",
      "type": "event"
    },
    {
      "anonymous": false,
      "inputs": [
        {
          "indexed": true,
          "internalType": "uint256",
          "name": "strategyId",
          "type": "uint256"
        }
      ],
      "name": "StrategyRemoved",
      "type": "event"
    },
    {
      "anonymous": false,
      "inputs": [
        {
          "indexed": true,
          "internalType": "address",
          "name": "tokenAddress",
          "type": "address"
        }
      ],
      "name": "TokenSupported",
      "type": "event"
    },
    {
      "anonymous": false,
      "inputs": [
        {
          "indexed": true,
          "internalType": "address",
          "name": "tokenAddress",
          "type": "address"
        }
      ],
      "name": "TokenUnSupported",
      "type": "event"
    },
    {
      "anonymous": false,
      "inputs": [
        {
          "indexed": true,
          "internalType": "address",
          "name": "user",
          "type": "address"
        },
        {
          "indexed": true,
          "internalType": "address",
          "name": "token",
          "type": "address"
        },
        {
          "indexed": false,
          "internalType": "uint256",
          "name": "amount",
          "type": "uint256"
        },
        {
          "indexed": true,
          "internalType": "uint256",
          "name": "strategyId",
          "type": "uint256"
        },
        {
          "indexed": false,
          "internalType": "uint256",
          "name": "timestamp",
          "type": "uint256"
        }
      ],
      "name": "Withdrawal",
      "type": "event"
    },
    {
      "inputs": [
        {
          "internalType": "uint256",
          "name": "_id",
          "type": "uint256"
        },
        {
          "internalType": "address",
          "name": "_tokenAddress",
          "type": "address"
        },
        {
          "internalType": "address",
          "name": "_strategyAddress",
          "type": "address"
        },
        {
          "internalType": "string",
          "name": "_name",
          "type": "string"
        },
        {
          "internalType": "enum YieldAggregator.StrategyType",
          "name": "_strategyType",
          "type": "uint8"
        }
      ],
      "name": "addStrategy",
      "outputs": [],
      "stateMutability": "nonpayable",
      "type": "function"
    },
    {
      "inputs": [
        {
          "internalType": "address",
          "name": "_tokenAddress",
          "type": "address"
        }
      ],
      "name": "addSupportedToken",
      "outputs": [],
      "stateMutability": "nonpayable",
      "type": "function"
    },
    {
      "inputs": [
        {
          "internalType": "address",
          "name": "_tokenAddress",
          "type": "address"
        },
        {
          "internalType": "uint256",
          "name": "_amount",
          "type": "uint256"
        },
        {
          "internalType": "uint256",
          "name": "_strategyId",
          "type": "uint256"
        }
      ],
      "name": "deposit",
      "outputs": [],
      "stateMutability": "nonpayable",
      "type": "function"
    },
    {
      "inputs": [],
      "name": "getAllStrategyIds",
      "outputs": [
        {
          "internalType": "uint256[]",
          "name": "",
          "type": "uint256[]"
        }
      ],
      "stateMutability": "view",
      "type": "function"
    },
    {
      "inputs": [
        {
          "internalType": "uint256",
          "name": "_strategyId",
          "type": "uint256"
        }
      ],
      "name": "getStrategyAPY",
      "outputs": [
        {
          "internalType": "uint256",
          "name": "",
          "type": "uint256"
        }
      ],
      "stateMutability": "view",
      "type": "function"
    },
    {
      "inputs": [
        {
          "internalType": "uint256",
          "name": "_strategyId",
          "type": "uint256"
        }
      ],
      "name": "getStrategyInfo",
      "outputs": [
        {
          "components": [
            {
              "internalType": "address",
              "name": "tokenAddress",
              "type": "address"
            },
            {
              "internalType": "address",
              "name": "strategyAddress",
              "type": "address"
            },
            {
              "internalType": "string",
              "name": "name",
              "type": "string"
            },
            {
              "internalType": "enum YieldAggregator.StrategyType",
              "name": "strategyType",
              "type": "uint8"
            },
            {
              "internalType": "bool",
              "name": "isActive",
              "type": "bool"
            }
          ],
          "internalType": "struct YieldAggregator.StrategyInfo",
          "name": "",
          "type": "tuple"
        }
      ],
      "stateMutability": "view",
      "type": "function"
    },
    {
      "inputs": [
        {
          "internalType": "uint256",
          "name": "_strategyId",
          "type": "uint256"
        },
        {
          "internalType": "address",
          "name": "_user",
          "type": "address"
        },
        {
          "internalType": "address",
          "name": "_tokenAddress",
          "type": "address"
        }
      ],
      "name": "getUserDeposit",
      "outputs": [
        {
          "internalType": "uint256",
          "name": "",
          "type": "uint256"
        }
      ],
      "stateMutability": "view",
      "type": "function"
    },
    {
      "inputs": [
        {
          "internalType": "address",
          "name": "",
          "type": "address"
        }
      ],
      "name": "isSupportedToken",
      "outputs": [
        {
          "internalType": "bool",
          "name": "",
          "type": "bool"
        }
      ],
      "stateMutability": "view",
      "type": "function"
    },
    {
      "inputs": [],
      "name": "owner",
      "outputs": [
        {
          "internalType": "address",
          "name": "",
          "type": "address"
        }
      ],
      "stateMutability": "view",
      "type": "function"
    },
    {
      "inputs": [
        {
          "internalType": "uint256",
          "name": "_strategyId",
          "type": "uint256"
        }
      ],
      "name": "removeStrategy",
      "outputs": [],
      "stateMutability": "nonpayable",
      "type": "function"
    },
    {
      "inputs": [
        {
          "internalType": "address",
          "name": "_tokenAddress",
          "type": "address"
        }
      ],
      "name": "removeSupportedToken",
      "outputs": [],
      "stateMutability": "nonpayable",
      "type": "function"
    },
    {
      "inputs": [],
      "name": "renounceOwnership",
      "outputs": [],
      "stateMutability": "nonpayable",
      "type": "function"
    },
    {
      "inputs": [
        {
          "internalType": "uint256",
          "name": "",
          "type": "uint256"
        }
      ],
      "name": "strategies",
      "outputs": [
        {
          "internalType": "address",
          "name": "tokenAddress",
          "type": "address"
        },
        {
          "internalType": "address",
          "name": "strategyAddress",
          "type": "address"
        },
        {
          "internalType": "string",
          "name": "name",
          "type": "string"
        },
        {
          "internalType": "enum YieldAggregator.StrategyType",
          "name": "strategyType",
          "type": "uint8"
        },
        {
          "internalType": "bool",
          "name": "isActive",
          "type": "bool"
        }
      ],
      "stateMutability": "view",
      "type": "function"
    },
    {
      "inputs": [
        {
          "internalType": "uint256",
          "name": "",
          "type": "uint256"
        }
      ],
      "name": "strategyIds",
      "outputs": [
        {
          "internalType": "uint256",
          "name": "",
          "type": "uint256"
        }
      ],
      "stateMutability": "view",
      "type": "function"
    },
    {
      "inputs": [
        {
          "internalType": "address",
          "name": "newOwner",
          "type": "address"
        }
      ],
      "name": "transferOwnership",
      "outputs": [],
      "stateMutability": "nonpayable",
      "type": "function"
    },
    {
      "inputs": [
        {
          "internalType": "address",
          "name": "",
          "type": "address"
        },
        {
          "internalType": "address",
          "name": "",
          "type": "address"
        },
        {
          "internalType": "uint256",
          "name": "",
          "type": "uint256"
        }
      ],
      "name": "userDeposits",
      "outputs": [
        {
          "internalType": "uint256",
          "name": "",
          "type": "uint256"
        }
      ],
      "stateMutability": "view",
      "type": "function"
    },
    {
      "inputs": [
        {
          "internalType": "address",
          "name": "_tokenAddress",
          "type": "address"
        },
        {
          "internalType": "uint256",
          "name": "_amount",
          "type": "uint256"
        },
        {
          "internalType": "uint256",
          "name": "_strategyId",
          "type": "uint256"
        }
      ],
      "name": "withdraw",
      "outputs": [],
      "stateMutability": "nonpayable",
      "type": "function"
    }
  ],
  "bytecode": "0x60806040523480156200001157600080fd5b50604051620018c8380380620018c88339810160408190526200003491620001c4565b33806200005b57604051631e4fbdf760e01b81526000600482015260240160405180910390fd5b620000668162000141565b506001805560005b8151811015620001395760016005600084848151811062000093576200009362000296565b60200260200101516001600160a01b03166001600160a01b0316815260200190815260200160002060006101000a81548160ff021916908315150217905550818181518110620000e757620000e762000296565b60200260200101516001600160a01b03167fea3145306a87baeba6bb1a8b5c8d3744f840a81cb436b3509f64fc978600cdfb60405160405180910390a2806200013081620002ac565b9150506200006e565b5050620002d4565b600080546001600160a01b038381166001600160a01b0319831681178455604051919092169283917f8be0079c531659141344cd1fd0a4f28419497f9722a3daafe3b4186f6b6457e09190a35050565b634e487b7160e01b600052604160045260246000fd5b80516001600160a01b0381168114620001bf57600080fd5b919050565b60006020808385031215620001d857600080fd5b82516001600160401b0380821115620001f057600080fd5b818501915085601f8301126200020557600080fd5b8151818111156200021a576200021a62000191565b8060051b604051601f19603f8301168101818110858211171562000242576200024262000191565b6040529182528482019250838101850191888311156200026157600080fd5b938501935b828510156200028a576200027a85620001a7565b8452938501939285019262000266565b98975050505050505050565b634e487b7160e01b600052603260045260246000fd5b600060018201620002cd57634e487b7160e01b600052601160045260246000fd5b5060010190565b6115e480620002e46000396000f3fe608060405234801561001057600080fd5b506004361061010b5760003560e01c806376319190116100a2578063c0cbbca611610071578063c0cbbca614610273578063d574ea3d14610286578063db089e79146102aa578063f2fde38b146102ca578063fe10a731146102dd57600080fd5b8063763191901461021f5780638da5cb5b14610232578063b5c5f6721461024d578063b77318f51461026057600080fd5b80632dc1eaf0116100de5780632dc1eaf0146101af5780636d69fcaf146101c2578063702984a8146101d5578063715018a61461021757600080fd5b80630efe6a8b14610110578063167f8d7214610125578063240028e8146101695780632a39fe481461019c575b600080fd5b61012361011e36600461104d565b6102f2565b005b610156610133366004611080565b600460209081526000938452604080852082529284528284209052825290205481565b6040519081526020015b60405180910390f35b61018c6101773660046110bc565b60056020526000908152604090205460ff1681565b6040519015158152602001610160565b6101236101aa3660046110fc565b610586565b6101566101bd3660046111e9565b6106fd565b6101236101d03660046110bc565b61071e565b6101566101e3366004611202565b6001600160a01b03918216600090815260046020908152604080832093909416825291825282812093815292905290205490565b610123610772565b61012361022d3660046110bc565b610786565b6000546040516001600160a01b039091168152602001610160565b61012361025b36600461104d565b6107d7565b61015661026e3660046111e9565b610a0f565b6101236102813660046111e9565b610b2c565b6102996102943660046111e9565b610bd4565b6040516101609594939291906112bc565b6102bd6102b83660046111e9565b610ca0565b6040516101609190611309565b6101236102d83660046110bc565b610de5565b6102e5610e23565b6040516101609190611370565b6102fa610e7b565b600081815260026020526040902060030154610100900460ff1661035b5760405162461bcd60e51b81526020600482015260136024820152725374726174656779206e6f742061637469766560681b60448201526064015b60405180910390fd5b600082116103ab5760405162461bcd60e51b815260206004820181905260248201527f416d6f756e74206d7573742062652067726561746572207468616e207a65726f6044820152606401610352565b6001600160a01b03831660009081526005602052604090205460ff1661041e5760405162461bcd60e51b815260206004820152602260248201527f5969656c6441676772656761746f723a20556e737570706f7274656420746f6b60448201526132b760f11b6064820152608401610352565b6104336001600160a01b038416333085610ea5565b3360009081526004602090815260408083206001600160a01b038716845282528083208484529091528120805484929061046e9084906113ca565b90915550506040805183815242602082015282916001600160a01b0386169133917f4e2ca0515ed1aef1395f66b5303bb5d6f1bf9d61a353fa53f73f8ac9973fa9f6910160405180910390a460008181526002602052604090206001600382015460ff1660018111156104e3576104e3611284565b03610577576001810154610504906001600160a01b03868116911685610f12565b6001810154604051635405611960e01b8152600481018590526001600160a01b03909116906354056119906024016020604051808303816000875af1158015610551573d6000803e3d6000fd5b505050506040513d601f19601f8201168201806040525081019061057591906113e3565b505b5061058160018055565b505050565b61058e610f43565b6040518060a00160405280856001600160a01b03168152602001846001600160a01b031681526020018381526020018260018111156105cf576105cf611284565b81526001602091820181905260008881526002808452604091829020855181546001600160a01b03199081166001600160a01b0392831617835595870151948201805490961694169390931790935583015190918201906106309082611487565b50606082015160038201805460ff19166001838181111561065357610653611284565b021790555060809190910151600391820180549115156101000261ff001990921691909117905580546001810182556000919091527fc2575a0e9e593c00f959f8c92f12db2869c3395a3b0502d05e2516446f71f85b018590556040516001600160a01b0385169086907f43346780176ce4554748b86fe802da142cf51f130fcdd37ff34af6b624c85d14906106ee90879087908790611547565b60405180910390a35050505050565b6003818154811061070d57600080fd5b600091825260209091200154905081565b610726610f43565b6001600160a01b038116600081815260056020526040808220805460ff19166001179055517fea3145306a87baeba6bb1a8b5c8d3744f840a81cb436b3509f64fc978600cdfb9190a250565b61077a610f43565b6107846000610f70565b565b61078e610f43565b6001600160a01b038116600081815260056020526040808220805460ff19169055517f8332d668d0b624d38bee2d36dfea84b188b0bccd2c918bf27e6d2ec787744c0a9190a250565b6107df610e7b565b6000821161082f5760405162461bcd60e51b815260206004820181905260248201527f416d6f756e74206d7573742062652067726561746572207468616e207a65726f6044820152606401610352565b3360009081526004602090815260408083206001600160a01b038716845282528083208484529091529020548211156108c25760405162461bcd60e51b815260206004820152602f60248201527f5969656c6441676772656761746f723a20496e73756666696369656e7420646560448201526e706f73697465642062616c616e636560881b6064820152608401610352565b60008181526002602052604090206001600382015460ff1660018111156108eb576108eb611284565b0361096957600181015460405163d1d8e6b560e01b8152600481018590523060248201526001600160a01b039091169063d1d8e6b5906044016020604051808303816000875af1158015610943573d6000803e3d6000fd5b505050506040513d601f19601f8201168201806040525081019061096791906113e3565b505b3360009081526004602090815260408083206001600160a01b03881684528252808320858452909152812080548592906109a4908490611582565b909155506109be90506001600160a01b0385163385610f12565b6040805184815242602082015283916001600160a01b0387169133917f0373e649c2cd6407bd569d5c66304cce4b4977c361734b811045f83c7bfe8c8b910160405180910390a45061058160018055565b60008181526002602052604081206001600382015460ff166001811115610a3857610a38611284565b03610abd578060010160009054906101000a90046001600160a01b03166001600160a01b0316633bcfc4b86040518163ffffffff1660e01b8152600401602060405180830381865afa158015610a92573d6000803e3d6000fd5b505050506040513d601f19601f82011682018060405250810190610ab69190611595565b9392505050565b6000600382015460ff166001811115610ad857610ad8611284565b03610ae65750600092915050565b60405162461bcd60e51b8152602060048201526015602482015274556e6b6e6f776e207374726174656779207479706560581b6044820152606401610352565b50919050565b610b34610f43565b600081815260026020526040902060030154610100900460ff16610b905760405162461bcd60e51b81526020600482015260136024820152725374726174656779206e6f742061637469766560681b6044820152606401610352565b600081815260026020526040808220600301805461ff00191690555182917fd75105a2aa4d0e369051dafafb95bda6d8633cb084ab8f4db5ebc096f880f54591a250565b60026020819052600091825260409091208054600182015492820180546001600160a01b03928316949092169291610c0b90611405565b80601f0160208091040260200160405190810160405280929190818152602001828054610c3790611405565b8015610c845780601f10610c5957610100808354040283529160200191610c84565b820191906000526020600020905b815481529060010190602001808311610c6757829003601f168201915b5050506003909301549192505060ff8082169161010090041685565b6040805160a08101825260008082526020820181905260609282018390529181018290526080810191909152600082815260026020818152604092839020835160a08101855281546001600160a01b0390811682526001830154169281019290925291820180549193840191610d1590611405565b80601f0160208091040260200160405190810160405280929190818152602001828054610d4190611405565b8015610d8e5780601f10610d6357610100808354040283529160200191610d8e565b820191906000526020600020905b815481529060010190602001808311610d7157829003601f168201915b5050509183525050600382015460209091019060ff166001811115610db557610db5611284565b6001811115610dc657610dc6611284565b815260039190910154610100900460ff16151560209091015292915050565b610ded610f43565b6001600160a01b038116610e1757604051631e4fbdf760e01b815260006004820152602401610352565b610e2081610f70565b50565b60606003805480602002602001604051908101604052809291908181526020018280548015610e7157602002820191906000526020600020905b815481526020019060010190808311610e5d575b5050505050905090565b600260015403610e9e57604051633ee5aeb560e01b815260040160405180910390fd5b6002600155565b6040516001600160a01b038481166024830152838116604483015260648201839052610f0c9186918216906323b872dd906084015b604051602081830303815290604052915060e01b6020820180516001600160e01b038381831617835250505050610fc0565b50505050565b6040516001600160a01b0383811660248301526044820183905261058191859182169063a9059cbb90606401610eda565b6000546001600160a01b031633146107845760405163118cdaa760e01b8152336004820152602401610352565b600080546001600160a01b038381166001600160a01b0319831681178455604051919092169283917f8be0079c531659141344cd1fd0a4f28419497f9722a3daafe3b4186f6b6457e09190a35050565b600080602060008451602086016000885af180610fe3576040513d6000823e3d81fd5b50506000513d91508115610ffb578060011415611008565b6001600160a01b0384163b155b15610f0c57604051635274afe760e01b81526001600160a01b0385166004820152602401610352565b80356001600160a01b038116811461104857600080fd5b919050565b60008060006060848603121561106257600080fd5b61106b84611031565b95602085013595506040909401359392505050565b60008060006060848603121561109557600080fd5b61109e84611031565b92506110ac60208501611031565b9150604084013590509250925092565b6000602082840312156110ce57600080fd5b610ab682611031565b634e487b7160e01b600052604160045260246000fd5b80356002811061104857600080fd5b600080600080600060a0868803121561111457600080fd5b8535945061112460208701611031565b935061113260408701611031565b9250606086013567ffffffffffffffff8082111561114f57600080fd5b818801915088601f83011261116357600080fd5b813581811115611175576111756110d7565b604051601f8201601f19908116603f0116810190838211818310171561119d5761119d6110d7565b816040528281528b60208487010111156111b657600080fd5b8260208601602083013760006020848301015280965050505050506111dd608087016110ed565b90509295509295909350565b6000602082840312156111fb57600080fd5b5035919050565b60008060006060848603121561121757600080fd5b8335925061122760208501611031565b915061123560408501611031565b90509250925092565b6000815180845260005b8181101561126457602081850181015186830182015201611248565b506000602082860101526020601f19601f83011685010191505092915050565b634e487b7160e01b600052602160045260246000fd5b600281106112b857634e487b7160e01b600052602160045260246000fd5b9052565b6001600160a01b0386811682528516602082015260a0604082018190526000906112e89083018661123e565b90506112f7606083018561129a565b82151560808301529695505050505050565b60208152600060018060a01b0380845116602084015280602085015116604084015250604083015160a0606084015261134560c084018261123e565b90506060840151611359608085018261129a565b506080840151151560a08401528091505092915050565b6020808252825182820181905260009190848201906040850190845b818110156113a85783518352928401929184019160010161138c565b50909695505050505050565b634e487b7160e01b600052601160045260246000fd5b808201808211156113dd576113dd6113b4565b92915050565b6000602082840312156113f557600080fd5b81518015158114610ab657600080fd5b600181811c9082168061141957607f821691505b602082108103610b2657634e487b7160e01b600052602260045260246000fd5b601f82111561058157600081815260208120601f850160051c810160208610156114605750805b601f850160051c820191505b8181101561147f5782815560010161146c565b505050505050565b815167ffffffffffffffff8111156114a1576114a16110d7565b6114b5816114af8454611405565b84611439565b602080601f8311600181146114ea57600084156114d25750858301515b600019600386901b1c1916600185901b17855561147f565b600085815260208120601f198616915b82811015611519578886015182559484019460019091019084016114fa565b50858210156115375787850151600019600388901b60f8161c191681555b5050505050600190811b01905550565b6001600160a01b038416815260606020820181905260009061156b9083018561123e565b905061157a604083018461129a565b949350505050565b818103818111156113dd576113dd6113b4565b6000602082840312156115a757600080fd5b505191905056fea2646970667358221220ee9612b9234709dfb66698200f7f9716d4fdb42fcbf324ec58857e46bd76454564736f6c63430008140033",
  "linkReferences": {},
  "deployedLinkReferences": {}
}