{
  "_format": "hh-sol-artifact-1",
  "contractName": "YieldAggregator",
  "sourceName": "contracts/YieldAggregator.sol",
  "abi": [
    {
      "inputs": [],
      "stateMutability": "nonpayable",
      "type": "constructor"
    },
    {
      "inputs": [
        {
          "internalType": "address",
          "name": "owner",
          "type": "address"
        }
      ],
      "name": "OwnableInvalidOwner",
      "type": "error"
    },
    {
      "inputs": [
        {
          "internalType": "address",
          "name": "account",
          "type": "address"
        }
      ],
      "name": "OwnableUnauthorizedAccount",
      "type": "error"
    },
    {
      "inputs": [],
      "name": "ReentrancyGuardReentrantCall",
      "type": "error"
    },
    {
      "anonymous": false,
      "inputs": [
        {
          "indexed": true,
          "internalType": "address",
          "name": "user",
          "type": "address"
        },
        {
          "indexed": true,
          "internalType": "bytes32",
          "name": "strategyId",
          "type": "bytes32"
        },
        {
          "indexed": false,
          "internalType": "uint256",
          "name": "amount",
          "type": "uint256"
        }
      ],
      "name": "DepositRecorded",
      "type": "event"
    },
    {
      "anonymous": false,
      "inputs": [
        {
          "indexed": true,
          "internalType": "address",
          "name": "previousOwner",
          "type": "address"
        },
        {
          "indexed": true,
          "internalType": "address",
          "name": "newOwner",
          "type": "address"
        }
      ],
      "name": "OwnershipTransferred",
      "type": "event"
    },
    {
      "anonymous": false,
      "inputs": [
        {
          "indexed": true,
          "internalType": "bytes32",
          "name": "strategyId",
          "type": "bytes32"
        },
        {
          "indexed": true,
          "internalType": "address",
          "name": "strategyAddress",
          "type": "address"
        },
        {
          "indexed": true,
          "internalType": "uint256",
          "name": "chainId",
          "type": "uint256"
        },
        {
          "indexed": false,
          "internalType": "string",
          "name": "name",
          "type": "string"
        }
      ],
      "name": "StrategyAdded",
      "type": "event"
    },
    {
      "anonymous": false,
      "inputs": [
        {
          "indexed": true,
          "internalType": "bytes32",
          "name": "strategyId",
          "type": "bytes32"
        }
      ],
      "name": "StrategyRemoved",
      "type": "event"
    },
    {
      "anonymous": false,
      "inputs": [
        {
          "indexed": true,
          "internalType": "address",
          "name": "user",
          "type": "address"
        },
        {
          "indexed": true,
          "internalType": "bytes32",
          "name": "strategyId",
          "type": "bytes32"
        },
        {
          "indexed": false,
          "internalType": "uint256",
          "name": "amount",
          "type": "uint256"
        }
      ],
      "name": "WithdrawalRecorded",
      "type": "event"
    },
    {
      "inputs": [
        {
          "internalType": "address",
          "name": "_strategyAddress",
          "type": "address"
        },
        {
          "internalType": "uint256",
          "name": "_chainId",
          "type": "uint256"
        },
        {
          "internalType": "string",
          "name": "_name",
          "type": "string"
        },
        {
          "internalType": "string",
          "name": "_description",
          "type": "string"
        },
        {
          "internalType": "uint256",
          "name": "_baseRiskScore",
          "type": "uint256"
        },
        {
          "internalType": "string",
          "name": "_offchainMetadataURI",
          "type": "string"
        }
      ],
      "name": "addStrategy",
      "outputs": [],
      "stateMutability": "nonpayable",
      "type": "function"
    },
    {
      "inputs": [
        {
          "internalType": "bytes32",
          "name": "_strategyId",
          "type": "bytes32"
        },
        {
          "internalType": "uint256",
          "name": "_amount",
          "type": "uint256"
        }
      ],
      "name": "deposit",
      "outputs": [],
      "stateMutability": "nonpayable",
      "type": "function"
    },
    {
      "inputs": [],
      "name": "getAllStrategyIds",
      "outputs": [
        {
          "internalType": "bytes32[]",
          "name": "",
          "type": "bytes32[]"
        }
      ],
      "stateMutability": "view",
      "type": "function"
    },
    {
      "inputs": [
        {
          "internalType": "bytes32",
          "name": "_strategyId",
          "type": "bytes32"
        }
      ],
      "name": "getStrategyInfo",
      "outputs": [
        {
          "components": [
            {
              "internalType": "address",
              "name": "strategyAddress",
              "type": "address"
            },
            {
              "internalType": "uint256",
              "name": "chainId",
              "type": "uint256"
            },
            {
              "internalType": "string",
              "name": "name",
              "type": "string"
            },
            {
              "internalType": "string",
              "name": "description",
              "type": "string"
            },
            {
              "internalType": "uint256",
              "name": "baseRiskScore",
              "type": "uint256"
            },
            {
              "internalType": "bool",
              "name": "isActive",
              "type": "bool"
            },
            {
              "internalType": "string",
              "name": "offchainMetadataURI",
              "type": "string"
            }
          ],
          "internalType": "struct YieldAggregator.YieldStrategy",
          "name": "",
          "type": "tuple"
        }
      ],
      "stateMutability": "view",
      "type": "function"
    },
    {
      "inputs": [
        {
          "internalType": "bytes32",
          "name": "_strategyId",
          "type": "bytes32"
        },
        {
          "internalType": "address",
          "name": "_user",
          "type": "address"
        }
      ],
      "name": "getUserDeposit",
      "outputs": [
        {
          "internalType": "uint256",
          "name": "",
          "type": "uint256"
        }
      ],
      "stateMutability": "view",
      "type": "function"
    },
    {
      "inputs": [],
      "name": "owner",
      "outputs": [
        {
          "internalType": "address",
          "name": "",
          "type": "address"
        }
      ],
      "stateMutability": "view",
      "type": "function"
    },
    {
      "inputs": [
        {
          "internalType": "bytes32",
          "name": "_strategyId",
          "type": "bytes32"
        }
      ],
      "name": "removeStrategy",
      "outputs": [],
      "stateMutability": "nonpayable",
      "type": "function"
    },
    {
      "inputs": [],
      "name": "renounceOwnership",
      "outputs": [],
      "stateMutability": "nonpayable",
      "type": "function"
    },
    {
      "inputs": [
        {
          "internalType": "bytes32",
          "name": "",
          "type": "bytes32"
        }
      ],
      "name": "strategies",
      "outputs": [
        {
          "internalType": "address",
          "name": "strategyAddress",
          "type": "address"
        },
        {
          "internalType": "uint256",
          "name": "chainId",
          "type": "uint256"
        },
        {
          "internalType": "string",
          "name": "name",
          "type": "string"
        },
        {
          "internalType": "string",
          "name": "description",
          "type": "string"
        },
        {
          "internalType": "uint256",
          "name": "baseRiskScore",
          "type": "uint256"
        },
        {
          "internalType": "bool",
          "name": "isActive",
          "type": "bool"
        },
        {
          "internalType": "string",
          "name": "offchainMetadataURI",
          "type": "string"
        }
      ],
      "stateMutability": "view",
      "type": "function"
    },
    {
      "inputs": [
        {
          "internalType": "uint256",
          "name": "",
          "type": "uint256"
        }
      ],
      "name": "strategyIds",
      "outputs": [
        {
          "internalType": "bytes32",
          "name": "",
          "type": "bytes32"
        }
      ],
      "stateMutability": "view",
      "type": "function"
    },
    {
      "inputs": [
        {
          "internalType": "address",
          "name": "newOwner",
          "type": "address"
        }
      ],
      "name": "transferOwnership",
      "outputs": [],
      "stateMutability": "nonpayable",
      "type": "function"
    },
    {
      "inputs": [
        {
          "internalType": "address",
          "name": "",
          "type": "address"
        },
        {
          "internalType": "bytes32",
          "name": "",
          "type": "bytes32"
        }
      ],
      "name": "userDeposits",
      "outputs": [
        {
          "internalType": "uint256",
          "name": "",
          "type": "uint256"
        }
      ],
      "stateMutability": "view",
      "type": "function"
    },
    {
      "inputs": [
        {
          "internalType": "bytes32",
          "name": "_strategyId",
          "type": "bytes32"
        },
        {
          "internalType": "uint256",
          "name": "_amount",
          "type": "uint256"
        }
      ],
      "name": "withdraw",
      "outputs": [],
      "stateMutability": "nonpayable",
      "type": "function"
    }
  ],
  "bytecode": "0x608060405234801561001057600080fd5b50338061003757604051631e4fbdf760e01b81526000600482015260240160405180910390fd5b6100408161004a565b506001805561009a565b600080546001600160a01b038381166001600160a01b0319831681178455604051919092169283917f8be0079c531659141344cd1fd0a4f28419497f9722a3daafe3b4186f6b6457e09190a35050565b611256806100a96000396000f3fe608060405234801561001057600080fd5b50600436106100cf5760003560e01c8063715018a61161008c578063dba6959511610066578063dba69595146101c9578063f2fde38b146101dc578063f6e9016c146101ef578063fe10a7311461020257600080fd5b8063715018a6146101935780638da5cb5b1461019b578063a822523c146101b657600080fd5b8063040cf020146100d4578063059d9410146100e95780631de26e16146101275780632dc1eaf01461013a5780633ff34eb91461014d578063702c45d914610173575b600080fd5b6100e76100e2366004610ce4565b610217565b005b6101146100f7366004610d22565b600460209081526000928352604080842090915290825290205481565b6040519081526020015b60405180910390f35b6100e7610135366004610ce4565b610349565b610114610148366004610d4c565b61045b565b61016061015b366004610d4c565b61047c565b60405161011e9796959493929190610dab565b610186610181366004610d4c565b610663565b60405161011e9190610e14565b6100e76108be565b6000546040516001600160a01b03909116815260200161011e565b6100e76101c4366004610f4b565b6108d2565b6101146101d7366004610ff6565b610ada565b6100e76101ea366004611022565b610b05565b6100e76101fd366004610d4c565b610b43565b61020a610be5565b60405161011e9190611044565b61021f610c3d565b600081116102745760405162461bcd60e51b815260206004820181905260248201527f416d6f756e74206d7573742062652067726561746572207468616e207a65726f60448201526064015b60405180910390fd5b3360009081526004602090815260408083208584529091529020548111156102d55760405162461bcd60e51b8152602060048201526014602482015273125b9cdd59999a58da595b9d0819195c1bdcda5d60621b604482015260640161026b565b336000908152600460209081526040808320858452909152812080548392906102ff90849061109e565b9091555050604051818152829033907f12c1deecf37363392e9ed2b49dab6caae9cdd0c759eb25304037980ba55996b0906020015b60405180910390a361034560018055565b5050565b610351610c3d565b60008281526002602052604090206005015460ff166103a85760405162461bcd60e51b81526020600482015260136024820152725374726174656779206e6f742061637469766560681b604482015260640161026b565b600081116103f85760405162461bcd60e51b815260206004820181905260248201527f416d6f756e74206d7573742062652067726561746572207468616e207a65726f604482015260640161026b565b336000908152600460209081526040808320858452909152812080548392906104229084906110b1565b9091555050604051818152829033907f36b17c95134656a8197b309ab8b9ed993b3d25b97bf92f9ab211edae4fd8f06c90602001610334565b6003818154811061046b57600080fd5b600091825260209091200154905081565b60026020819052600091825260409091208054600182015492820180546001600160a01b039092169392916104b0906110c4565b80601f01602080910402602001604051908101604052809291908181526020018280546104dc906110c4565b80156105295780601f106104fe57610100808354040283529160200191610529565b820191906000526020600020905b81548152906001019060200180831161050c57829003601f168201915b50505050509080600301805461053e906110c4565b80601f016020809104026020016040519081016040528092919081815260200182805461056a906110c4565b80156105b75780601f1061058c576101008083540402835291602001916105b7565b820191906000526020600020905b81548152906001019060200180831161059a57829003601f168201915b50505050600483015460058401546006850180549495929460ff9092169350906105e0906110c4565b80601f016020809104026020016040519081016040528092919081815260200182805461060c906110c4565b80156106595780601f1061062e57610100808354040283529160200191610659565b820191906000526020600020905b81548152906001019060200180831161063c57829003601f168201915b5050505050905087565b6106ae6040518060e0016040528060006001600160a01b0316815260200160008152602001606081526020016060815260200160008152602001600015158152602001606081525090565b600082815260026020818152604092839020835160e08101855281546001600160a01b03168152600182015492810192909252918201805491938401916106f4906110c4565b80601f0160208091040260200160405190810160405280929190818152602001828054610720906110c4565b801561076d5780601f106107425761010080835404028352916020019161076d565b820191906000526020600020905b81548152906001019060200180831161075057829003601f168201915b50505050508152602001600382018054610786906110c4565b80601f01602080910402602001604051908101604052809291908181526020018280546107b2906110c4565b80156107ff5780601f106107d4576101008083540402835291602001916107ff565b820191906000526020600020905b8154815290600101906020018083116107e257829003601f168201915b505050918352505060048201546020820152600582015460ff1615156040820152600682018054606090920191610835906110c4565b80601f0160208091040260200160405190810160405280929190818152602001828054610861906110c4565b80156108ae5780601f10610883576101008083540402835291602001916108ae565b820191906000526020600020905b81548152906001019060200180831161089157829003601f168201915b5050505050815250509050919050565b6108c6610c67565b6108d06000610c94565b565b6108da610c67565b6040516bffffffffffffffffffffffff19606088901b1660208201526034810186905260009060540160408051601f198184030181529181528151602092830120600081815260029093529120549091506001600160a01b0316156109815760405162461bcd60e51b815260206004820152601760248201527f537472617465677920616c726561647920657869737473000000000000000000604482015260640161026b565b6040805160e0810182526001600160a01b03898116825260208083018a81528385018a8152606085018a905260808501899052600160a0860181905260c08601899052600088815260029485905296909620855181546001600160a01b031916951694909417845590519483019490945592519192909190820190610a06908261114d565b5060608201516003820190610a1b908261114d565b506080820151600482015560a082015160058201805460ff191691151591909117905560c08201516006820190610a52908261114d565b5050600380546001810182556000919091527fc2575a0e9e593c00f959f8c92f12db2869c3395a3b0502d05e2516446f71f85b018290555060405186906001600160a01b0389169083907fc908c4dc16160cd5dbe6aff3392caa86f611aa0d84fa59b6fb041a15a5b178ad90610ac9908a9061120d565b60405180910390a450505050505050565b6001600160a01b03811660009081526004602090815260408083208584529091529020545b92915050565b610b0d610c67565b6001600160a01b038116610b3757604051631e4fbdf760e01b81526000600482015260240161026b565b610b4081610c94565b50565b610b4b610c67565b60008181526002602052604090206005015460ff16610ba25760405162461bcd60e51b81526020600482015260136024820152725374726174656779206e6f742061637469766560681b604482015260640161026b565b600081815260026020526040808220600501805460ff191690555182917fc461e1e12b72099557560f27b379a579bc7713e54dfe6c01aef4c18b770efbbd91a250565b60606003805480602002602001604051908101604052809291908181526020018280548015610c3357602002820191906000526020600020905b815481526020019060010190808311610c1f575b5050505050905090565b600260015403610c6057604051633ee5aeb560e01b815260040160405180910390fd5b6002600155565b6000546001600160a01b031633146108d05760405163118cdaa760e01b815233600482015260240161026b565b600080546001600160a01b038381166001600160a01b0319831681178455604051919092169283917f8be0079c531659141344cd1fd0a4f28419497f9722a3daafe3b4186f6b6457e09190a35050565b60008060408385031215610cf757600080fd5b50508035926020909101359150565b80356001600160a01b0381168114610d1d57600080fd5b919050565b60008060408385031215610d3557600080fd5b610d3e83610d06565b946020939093013593505050565b600060208284031215610d5e57600080fd5b5035919050565b6000815180845260005b81811015610d8b57602081850181015186830182015201610d6f565b506000602082860101526020601f19601f83011685010191505092915050565b60018060a01b038816815286602082015260e060408201526000610dd260e0830188610d65565b8281036060840152610de48188610d65565b905085608084015284151560a084015282810360c0840152610e068185610d65565b9a9950505050505050505050565b6020815260018060a01b038251166020820152602082015160408201526000604083015160e06060840152610e4d610100840182610d65565b90506060840151601f1980858403016080860152610e6b8383610d65565b9250608086015160a086015260a0860151151560c086015260c08601519150808584030160e086015250610e9f8282610d65565b95945050505050565b634e487b7160e01b600052604160045260246000fd5b600082601f830112610ecf57600080fd5b813567ffffffffffffffff80821115610eea57610eea610ea8565b604051601f8301601f19908116603f01168101908282118183101715610f1257610f12610ea8565b81604052838152866020858801011115610f2b57600080fd5b836020870160208301376000602085830101528094505050505092915050565b60008060008060008060c08789031215610f6457600080fd5b610f6d87610d06565b955060208701359450604087013567ffffffffffffffff80821115610f9157600080fd5b610f9d8a838b01610ebe565b95506060890135915080821115610fb357600080fd5b610fbf8a838b01610ebe565b94506080890135935060a0890135915080821115610fdc57600080fd5b50610fe989828a01610ebe565b9150509295509295509295565b6000806040838503121561100957600080fd5b8235915061101960208401610d06565b90509250929050565b60006020828403121561103457600080fd5b61103d82610d06565b9392505050565b6020808252825182820181905260009190848201906040850190845b8181101561107c57835183529284019291840191600101611060565b50909695505050505050565b634e487b7160e01b600052601160045260246000fd5b81810381811115610aff57610aff611088565b80820180821115610aff57610aff611088565b600181811c908216806110d857607f821691505b6020821081036110f857634e487b7160e01b600052602260045260246000fd5b50919050565b601f82111561114857600081815260208120601f850160051c810160208610156111255750805b601f850160051c820191505b8181101561114457828155600101611131565b5050505b505050565b815167ffffffffffffffff81111561116757611167610ea8565b61117b8161117584546110c4565b846110fe565b602080601f8311600181146111b057600084156111985750858301515b600019600386901b1c1916600185901b178555611144565b600085815260208120601f198616915b828110156111df578886015182559484019460019091019084016111c0565b50858210156111fd5787850151600019600388901b60f8161c191681555b5050505050600190811b01905550565b60208152600061103d6020830184610d6556fea264697066735822122004c5054503645b20ce4edd19002e3a51b98550667cfa59e664d8d3a03b2f615164736f6c63430008140033",
  "deployedLinkReferences": {}
}