{
  "_format": "hh-sol-artifact-1",
  "contractName": "YieldAggregator",
  "sourceName": "contracts/YieldAggregator.sol",
  "abi": [
    {
      "inputs": [
        {
          "internalType": "address[]",
          "name": "_initialSupportedTokens",
          "type": "address[]"
        }
      ],
      "stateMutability": "nonpayable",
      "type": "constructor"
    },
    {
      "inputs": [
        {
          "internalType": "address",
          "name": "owner",
          "type": "address"
        }
      ],
      "name": "OwnableInvalidOwner",
      "type": "error"
    },
    {
      "inputs": [
        {
          "internalType": "address",
          "name": "account",
          "type": "address"
        }
      ],
      "name": "OwnableUnauthorizedAccount",
      "type": "error"
    },
    {
      "inputs": [],
      "name": "ReentrancyGuardReentrantCall",
      "type": "error"
    },
    {
      "inputs": [
        {
          "internalType": "address",
          "name": "token",
          "type": "address"
        }
      ],
      "name": "SafeERC20FailedOperation",
      "type": "error"
    },
    {
      "anonymous": false,
      "inputs": [
        {
          "indexed": true,
          "internalType": "address",
          "name": "user",
          "type": "address"
        },
        {
          "indexed": true,
          "internalType": "address",
          "name": "token",
          "type": "address"
        },
        {
          "indexed": false,
          "internalType": "uint256",
          "name": "amount",
          "type": "uint256"
        },
        {
          "indexed": true,
          "internalType": "uint256",
          "name": "strategyId",
          "type": "uint256"
        },
        {
          "indexed": false,
          "internalType": "uint256",
          "name": "timestamp",
          "type": "uint256"
        }
      ],
      "name": "Deposit",
      "type": "event"
    },
    {
      "anonymous": false,
      "inputs": [
        {
          "indexed": true,
          "internalType": "address",
          "name": "previousOwner",
          "type": "address"
        },
        {
          "indexed": true,
          "internalType": "address",
          "name": "newOwner",
          "type": "address"
        }
      ],
      "name": "OwnershipTransferred",
      "type": "event"
    },
    {
      "anonymous": false,
      "inputs": [
        {
          "indexed": true,
          "internalType": "uint256",
          "name": "id",
          "type": "uint256"
        },
        {
          "indexed": true,
          "internalType": "address",
          "name": "tokenAddress",
          "type": "address"
        },
        {
          "indexed": false,
          "internalType": "address",
          "name": "strategyAddress",
          "type": "address"
        },
        {
          "indexed": false,
          "internalType": "string",
          "name": "name",
          "type": "string"
        },
        {
          "indexed": false,
          "internalType": "enum IStrategyManager.StrategyType",
          "name": "strategyType",
          "type": "uint8"
        }
      ],
      "name": "StrategyAdded",
      "type": "event"
    },
    {
      "anonymous": false,
      "inputs": [
        {
          "indexed": true,
          "internalType": "uint256",
          "name": "strategyId",
          "type": "uint256"
        }
      ],
      "name": "StrategyRemoved",
      "type": "event"
    },
    {
      "anonymous": false,
      "inputs": [
        {
          "indexed": true,
          "internalType": "address",
          "name": "tokenAddress",
          "type": "address"
        }
      ],
      "name": "TokenSupported",
      "type": "event"
    },
    {
      "anonymous": false,
      "inputs": [
        {
          "indexed": true,
          "internalType": "address",
          "name": "tokenAddress",
          "type": "address"
        }
      ],
      "name": "TokenUnSupported",
      "type": "event"
    },
    {
      "anonymous": false,
      "inputs": [
        {
          "indexed": true,
          "internalType": "address",
          "name": "user",
          "type": "address"
        },
        {
          "indexed": true,
          "internalType": "address",
          "name": "token",
          "type": "address"
        },
        {
          "indexed": false,
          "internalType": "uint256",
          "name": "amount",
          "type": "uint256"
        },
        {
          "indexed": true,
          "internalType": "uint256",
          "name": "strategyId",
          "type": "uint256"
        },
        {
          "indexed": false,
          "internalType": "uint256",
          "name": "timestamp",
          "type": "uint256"
        }
      ],
      "name": "Withdrawal",
      "type": "event"
    },
    {
      "inputs": [
        {
          "internalType": "uint256",
          "name": "_id",
          "type": "uint256"
        },
        {
          "internalType": "address",
          "name": "_tokenAddress",
          "type": "address"
        },
        {
          "internalType": "address",
          "name": "_strategyAddress",
          "type": "address"
        },
        {
          "internalType": "string",
          "name": "_name",
          "type": "string"
        },
        {
          "internalType": "uint256",
          "name": "_chainId",
          "type": "uint256"
        },
        {
          "internalType": "enum IStrategyManager.StrategyType",
          "name": "_strategyType",
          "type": "uint8"
        }
      ],
      "name": "addStrategy",
      "outputs": [],
      "stateMutability": "nonpayable",
      "type": "function"
    },
    {
      "inputs": [
        {
          "internalType": "address",
          "name": "_tokenAddress",
          "type": "address"
        }
      ],
      "name": "addSupportedToken",
      "outputs": [],
      "stateMutability": "nonpayable",
      "type": "function"
    },
    {
      "inputs": [
        {
          "internalType": "address",
          "name": "_tokenAddress",
          "type": "address"
        },
        {
          "internalType": "uint256",
          "name": "_amount",
          "type": "uint256"
        },
        {
          "internalType": "uint256",
          "name": "_strategyId",
          "type": "uint256"
        }
      ],
      "name": "deposit",
      "outputs": [],
      "stateMutability": "nonpayable",
      "type": "function"
    },
    {
      "inputs": [],
      "name": "getAllStrategyIds",
      "outputs": [
        {
          "internalType": "uint256[]",
          "name": "",
          "type": "uint256[]"
        }
      ],
      "stateMutability": "view",
      "type": "function"
    },
    {
      "inputs": [
        {
          "internalType": "uint256[]",
          "name": "_strategyIds",
          "type": "uint256[]"
        }
      ],
      "name": "getBatchStrategyData",
      "outputs": [
        {
          "components": [
            {
              "internalType": "address",
              "name": "tokenAddress",
              "type": "address"
            },
            {
              "internalType": "address",
              "name": "strategyAddress",
              "type": "address"
            },
            {
              "internalType": "string",
              "name": "name",
              "type": "string"
            },
            {
              "internalType": "uint256",
              "name": "chainId",
              "type": "uint256"
            },
            {
              "internalType": "enum IStrategyManager.StrategyType",
              "name": "strategyType",
              "type": "uint8"
            },
            {
              "internalType": "bool",
              "name": "isActive",
              "type": "bool"
            },
            {
              "internalType": "uint256",
              "name": "apy",
              "type": "uint256"
            },
            {
              "internalType": "uint256",
              "name": "totalDeposits",
              "type": "uint256"
            },
            {
              "internalType": "uint256",
              "name": "totalValueLocked",
              "type": "uint256"
            }
          ],
          "internalType": "struct IStrategyManager.StrategyData[]",
          "name": "",
          "type": "tuple[]"
        }
      ],
      "stateMutability": "view",
      "type": "function"
    },
    {
      "inputs": [
        {
          "internalType": "address",
          "name": "_user",
          "type": "address"
        },
        {
          "internalType": "uint256[]",
          "name": "_strategyIds",
          "type": "uint256[]"
        }
      ],
      "name": "getBatchUserData",
      "outputs": [
        {
          "components": [
            {
              "internalType": "uint256",
              "name": "balance",
              "type": "uint256"
            },
            {
              "internalType": "uint256",
              "name": "allowance",
              "type": "uint256"
            },
            {
              "internalType": "uint256",
              "name": "depositedAmount",
              "type": "uint256"
            },
            {
              "internalType": "bool",
              "name": "needsApproval",
              "type": "bool"
            }
          ],
          "internalType": "struct IStrategyManager.UserData[]",
          "name": "",
          "type": "tuple[]"
        }
      ],
      "stateMutability": "view",
      "type": "function"
    },
    {
      "inputs": [
        {
          "internalType": "uint256",
          "name": "_strategyId",
          "type": "uint256"
        }
      ],
      "name": "getStrategyAPY",
      "outputs": [
        {
          "internalType": "uint256",
          "name": "",
          "type": "uint256"
        }
      ],
      "stateMutability": "view",
      "type": "function"
    },
    {
      "inputs": [
        {
          "internalType": "uint256",
          "name": "_strategyId",
          "type": "uint256"
        }
      ],
      "name": "getStrategyData",
      "outputs": [
        {
          "components": [
            {
              "internalType": "address",
              "name": "tokenAddress",
              "type": "address"
            },
            {
              "internalType": "address",
              "name": "strategyAddress",
              "type": "address"
            },
            {
              "internalType": "string",
              "name": "name",
              "type": "string"
            },
            {
              "internalType": "uint256",
              "name": "chainId",
              "type": "uint256"
            },
            {
              "internalType": "enum IStrategyManager.StrategyType",
              "name": "strategyType",
              "type": "uint8"
            },
            {
              "internalType": "bool",
              "name": "isActive",
              "type": "bool"
            },
            {
              "internalType": "uint256",
              "name": "apy",
              "type": "uint256"
            },
            {
              "internalType": "uint256",
              "name": "totalDeposits",
              "type": "uint256"
            },
            {
              "internalType": "uint256",
              "name": "totalValueLocked",
              "type": "uint256"
            }
          ],
          "internalType": "struct IStrategyManager.StrategyData",
          "name": "",
          "type": "tuple"
        }
      ],
      "stateMutability": "view",
      "type": "function"
    },
    {
      "inputs": [
        {
          "internalType": "uint256",
          "name": "_strategyId",
          "type": "uint256"
        }
      ],
      "name": "getStrategyInfo",
      "outputs": [
        {
          "components": [
            {
              "internalType": "address",
              "name": "tokenAddress",
              "type": "address"
            },
            {
              "internalType": "address",
              "name": "strategyAddress",
              "type": "address"
            },
            {
              "internalType": "string",
              "name": "name",
              "type": "string"
            },
            {
              "internalType": "uint256",
              "name": "chainId",
              "type": "uint256"
            },
            {
              "internalType": "enum IStrategyManager.StrategyType",
              "name": "strategyType",
              "type": "uint8"
            },
            {
              "internalType": "bool",
              "name": "isActive",
              "type": "bool"
            }
          ],
          "internalType": "struct IStrategyManager.StrategyInfo",
          "name": "",
          "type": "tuple"
        }
      ],
      "stateMutability": "view",
      "type": "function"
    },
    {
      "inputs": [
        {
          "internalType": "address",
          "name": "_user",
          "type": "address"
        },
        {
          "internalType": "uint256",
          "name": "_strategyId",
          "type": "uint256"
        }
      ],
      "name": "getUserData",
      "outputs": [
        {
          "components": [
            {
              "internalType": "uint256",
              "name": "balance",
              "type": "uint256"
            },
            {
              "internalType": "uint256",
              "name": "allowance",
              "type": "uint256"
            },
            {
              "internalType": "uint256",
              "name": "depositedAmount",
              "type": "uint256"
            },
            {
              "internalType": "bool",
              "name": "needsApproval",
              "type": "bool"
            }
          ],
          "internalType": "struct IStrategyManager.UserData",
          "name": "",
          "type": "tuple"
        }
      ],
      "stateMutability": "view",
      "type": "function"
    },
    {
      "inputs": [
        {
          "internalType": "uint256",
          "name": "_strategyId",
          "type": "uint256"
        },
        {
          "internalType": "address",
          "name": "_user",
          "type": "address"
        },
        {
          "internalType": "address",
          "name": "_tokenAddress",
          "type": "address"
        }
      ],
      "name": "getUserDeposit",
      "outputs": [
        {
          "internalType": "uint256",
          "name": "",
          "type": "uint256"
        }
      ],
      "stateMutability": "view",
      "type": "function"
    },
    {
      "inputs": [
        {
          "internalType": "address",
          "name": "",
          "type": "address"
        }
      ],
      "name": "isSupportedToken",
      "outputs": [
        {
          "internalType": "bool",
          "name": "",
          "type": "bool"
        }
      ],
      "stateMutability": "view",
      "type": "function"
    },
    {
      "inputs": [],
      "name": "owner",
      "outputs": [
        {
          "internalType": "address",
          "name": "",
          "type": "address"
        }
      ],
      "stateMutability": "view",
      "type": "function"
    },
    {
      "inputs": [
        {
          "internalType": "uint256",
          "name": "_strategyId",
          "type": "uint256"
        }
      ],
      "name": "removeStrategy",
      "outputs": [],
      "stateMutability": "nonpayable",
      "type": "function"
    },
    {
      "inputs": [
        {
          "internalType": "address",
          "name": "_tokenAddress",
          "type": "address"
        }
      ],
      "name": "removeSupportedToken",
      "outputs": [],
      "stateMutability": "nonpayable",
      "type": "function"
    },
    {
      "inputs": [],
      "name": "renounceOwnership",
      "outputs": [],
      "stateMutability": "nonpayable",
      "type": "function"
    },
    {
      "inputs": [
        {
          "internalType": "uint256",
          "name": "",
          "type": "uint256"
        }
      ],
      "name": "strategies",
      "outputs": [
        {
          "internalType": "address",
          "name": "tokenAddress",
          "type": "address"
        },
        {
          "internalType": "address",
          "name": "strategyAddress",
          "type": "address"
        },
        {
          "internalType": "string",
          "name": "name",
          "type": "string"
        },
        {
          "internalType": "uint256",
          "name": "chainId",
          "type": "uint256"
        },
        {
          "internalType": "enum IStrategyManager.StrategyType",
          "name": "strategyType",
          "type": "uint8"
        },
        {
          "internalType": "bool",
          "name": "isActive",
          "type": "bool"
        }
      ],
      "stateMutability": "view",
      "type": "function"
    },
    {
      "inputs": [
        {
          "internalType": "uint256",
          "name": "",
          "type": "uint256"
        }
      ],
      "name": "strategyIds",
      "outputs": [
        {
          "internalType": "uint256",
          "name": "",
          "type": "uint256"
        }
      ],
      "stateMutability": "view",
      "type": "function"
    },
    {
      "inputs": [
        {
          "internalType": "address",
          "name": "newOwner",
          "type": "address"
        }
      ],
      "name": "transferOwnership",
      "outputs": [],
      "stateMutability": "nonpayable",
      "type": "function"
    },
    {
      "inputs": [
        {
          "internalType": "address",
          "name": "",
          "type": "address"
        },
        {
          "internalType": "address",
          "name": "",
          "type": "address"
        },
        {
          "internalType": "uint256",
          "name": "",
          "type": "uint256"
        }
      ],
      "name": "userDeposits",
      "outputs": [
        {
          "internalType": "uint256",
          "name": "",
          "type": "uint256"
        }
      ],
      "stateMutability": "view",
      "type": "function"
    },
    {
      "inputs": [
        {
          "internalType": "address",
          "name": "_tokenAddress",
          "type": "address"
        },
        {
          "internalType": "uint256",
          "name": "_amount",
          "type": "uint256"
        },
        {
          "internalType": "uint256",
          "name": "_strategyId",
          "type": "uint256"
        }
      ],
      "name": "withdraw",
      "outputs": [],
      "stateMutability": "nonpayable",
      "type": "function"
    }
  ],
  "bytecode": "0x60806040523480156200001157600080fd5b5060405162002789380380620027898339810160408190526200003491620001c4565b33806200005b57604051631e4fbdf760e01b81526000600482015260240160405180910390fd5b620000668162000141565b506001805560005b8151811015620001395760016005600084848151811062000093576200009362000296565b60200260200101516001600160a01b03166001600160a01b0316815260200190815260200160002060006101000a81548160ff021916908315150217905550818181518110620000e757620000e762000296565b60200260200101516001600160a01b03167fea3145306a87baeba6bb1a8b5c8d3744f840a81cb436b3509f64fc978600cdfb60405160405180910390a2806200013081620002ac565b9150506200006e565b5050620002d4565b600080546001600160a01b038381166001600160a01b0319831681178455604051919092169283917f8be0079c531659141344cd1fd0a4f28419497f9722a3daafe3b4186f6b6457e09190a35050565b634e487b7160e01b600052604160045260246000fd5b80516001600160a01b0381168114620001bf57600080fd5b919050565b60006020808385031215620001d857600080fd5b82516001600160401b0380821115620001f057600080fd5b818501915085601f8301126200020557600080fd5b8151818111156200021a576200021a62000191565b8060051b604051601f19603f8301168101818110858211171562000242576200024262000191565b6040529182528482019250838101850191888311156200026157600080fd5b938501935b828510156200028a576200027a85620001a7565b8452938501939285019262000266565b98975050505050505050565b634e487b7160e01b600052603260045260246000fd5b600060018201620002cd57634e487b7160e01b600052601160045260246000fd5b5060010190565b6124a580620002e46000396000f3fe608060405234801561001057600080fd5b50600436106101375760003560e01c806376319190116100b8578063ca1940bd1161007c578063ca1940bd146102ff578063d574ea3d14610312578063db089e7914610337578063f2fde38b14610357578063f30714f11461036a578063fe10a7311461038a57600080fd5b806376319190146102985780638da5cb5b146102ab578063b5c5f672146102c6578063b77318f5146102d9578063c0cbbca6146102ec57600080fd5b80632dc1eaf0116100ff5780632dc1eaf0146102085780634cd01af11461021b5780636d69fcaf1461023b578063702984a81461024e578063715018a61461029057600080fd5b80630efe6a8b1461013c578063167f8d72146101515780631738e217146101955780631fc2d52e146101b5578063240028e8146101d5575b600080fd5b61014f61014a3660046119f0565b61039f565b005b61018261015f366004611a25565b600460209081526000938452604080852082529284528284209052825290205481565b6040519081526020015b60405180910390f35b6101a86101a3366004611a66565b610633565b60405161018c9190611ba5565b6101c86101c3366004611c04565b61094a565b60405161018c9190611c59565b6101f86101e3366004611cca565b60056020526000908152604090205460ff1681565b604051901515815260200161018c565b610182610216366004611a66565b610a9b565b61022e610229366004611ce7565b610abc565b60405161018c9190611d13565b61014f610249366004611cca565b610d4e565b61018261025c366004611d40565b6001600160a01b03918216600090815260046020908152604080832093909416825291825282812093815292905290205490565b61014f610da2565b61014f6102a6366004611cca565b610db6565b6000546040516001600160a01b03909116815260200161018c565b61014f6102d43660046119f0565b610e07565b6101826102e7366004611a66565b61103f565b61014f6102fa366004611a66565b6111c6565b61014f61030d366004611e38565b61126e565b610325610320366004611a66565b6113f9565b60405161018c96959493929190611f00565b61034a610345366004611a66565b6114cc565b60405161018c9190611f54565b61014f610365366004611cca565b611622565b61037d610378366004611fc5565b611660565b60405161018c9190612007565b61039261177e565b60405161018c9190612069565b6103a76117d6565b600081815260026020526040902060040154610100900460ff166104085760405162461bcd60e51b81526020600482015260136024820152725374726174656779206e6f742061637469766560681b60448201526064015b60405180910390fd5b600082116104585760405162461bcd60e51b815260206004820181905260248201527f416d6f756e74206d7573742062652067726561746572207468616e207a65726f60448201526064016103ff565b6001600160a01b03831660009081526005602052604090205460ff166104cb5760405162461bcd60e51b815260206004820152602260248201527f5969656c6441676772656761746f723a20556e737570706f7274656420746f6b60448201526132b760f11b60648201526084016103ff565b6104e06001600160a01b038416333085611800565b3360009081526004602090815260408083206001600160a01b038716845282528083208484529091528120805484929061051b9084906120b7565b90915550506040805183815242602082015282916001600160a01b0386169133917f4e2ca0515ed1aef1395f66b5303bb5d6f1bf9d61a353fa53f73f8ac9973fa9f6910160405180910390a460008181526002602052604090206001600482015460ff16600281111561059057610590611acf565b036106245760018101546105b1906001600160a01b0386811691168561186d565b6001810154604051635405611960e01b8152600481018590526001600160a01b03909116906354056119906024016020604051808303816000875af11580156105fe573d6000803e3d6000fd5b505050506040513d601f19601f8201168201806040525081019061062291906120da565b505b5061062e60018055565b505050565b61063b61198c565b6000828152600260208181526040808420815160c08101835281546001600160a01b03908116825260018301541693810193909352928301805492939291840191610685906120f5565b80601f01602080910402602001604051908101604052809291908181526020018280546106b1906120f5565b80156106fe5780601f106106d3576101008083540402835291602001916106fe565b820191906000526020600020905b8154815290600101906020018083116106e157829003601f168201915b505050918352505060038201546020820152600482015460409091019060ff16600281111561072f5761072f611acf565b600281111561074057610740611acf565b815260049190910154610100900460ff1615156020909101529050600060018260800151600281111561077557610775611acf565b036107eb5781602001516001600160a01b0316633bcfc4b86040518163ffffffff1660e01b8152600401602060405180830381865afa9250505080156107d8575060408051601f3d908101601f191682019092526107d591810190612129565b60015b6107e457506000610875565b9050610875565b60008260800151600281111561080357610803611acf565b036108755781602001516001600160a01b031663d2cbf7ad6040518163ffffffff1660e01b8152600401602060405180830381865afa925050508015610866575060408051601f3d908101601f1916820190925261086391810190612129565b60015b61087257506000610875565b90505b6000805b6003548110156108c257856003828154811061089757610897612142565b9060005260206000200154036108b057600091506108c2565b806108ba81612158565b915050610879565b5060405180610120016040528084600001516001600160a01b0316815260200184602001516001600160a01b0316815260200184604001518152602001846060015181526020018460800151600281111561091f5761091f611acf565b81526020018460a0015115158152602001838152602001828152602001828152509350505050919050565b606060008267ffffffffffffffff81111561096757610967611d82565b6040519080825280602002602001820160405280156109c557816020015b6109b260405180608001604052806000815260200160008152602001600081526020016000151581525090565b8152602001906001900390816109855790505b50905060005b83811015610a925730634cd01af1878787858181106109ec576109ec612142565b6040516001600160e01b031960e087901b1681526001600160a01b0390941660048501526020029190910135602483015250604401608060405180830381865afa158015610a3e573d6000803e3d6000fd5b505050506040513d601f19601f82011682018060405250810190610a629190612171565b828281518110610a7457610a74612142565b60200260200101819052508080610a8a90612158565b9150506109cb565b50949350505050565b60038181548110610aab57600080fd5b600091825260209091200154905081565b610ae960405180608001604052806000815260200160008152602001600081526020016000151581525090565b6000828152600260208181526040808420815160c08101835281546001600160a01b03908116825260018301541693810193909352928301805492939291840191610b33906120f5565b80601f0160208091040260200160405190810160405280929190818152602001828054610b5f906120f5565b8015610bac5780601f10610b8157610100808354040283529160200191610bac565b820191906000526020600020905b815481529060010190602001808311610b8f57829003601f168201915b505050918352505060038201546020820152600482015460409091019060ff166002811115610bdd57610bdd611acf565b6002811115610bee57610bee611acf565b8152600491820154610100900460ff16151560209091015281516040516370a0823160e01b81526001600160a01b03888116938201939093529293506000929116906370a0823190602401602060405180830381865afa158015610c56573d6000803e3d6000fd5b505050506040513d601f19601f82011682018060405250810190610c7a9190612129565b8251604051636eb1769f60e11b81526001600160a01b0388811660048301523060248301529293506000929091169063dd62ed3e90604401602060405180830381865afa158015610ccf573d6000803e3d6000fd5b505050506040513d601f19601f82011682018060405250810190610cf39190612129565b6001600160a01b03808816600090815260046020908152604080832097519093168252958652818120888252865281902054815160808101835294855294840182905283018490529290921060608201529150505b92915050565b610d5661189e565b6001600160a01b038116600081815260056020526040808220805460ff19166001179055517fea3145306a87baeba6bb1a8b5c8d3744f840a81cb436b3509f64fc978600cdfb9190a250565b610daa61189e565b610db460006118cb565b565b610dbe61189e565b6001600160a01b038116600081815260056020526040808220805460ff19169055517f8332d668d0b624d38bee2d36dfea84b188b0bccd2c918bf27e6d2ec787744c0a9190a250565b610e0f6117d6565b60008211610e5f5760405162461bcd60e51b815260206004820181905260248201527f416d6f756e74206d7573742062652067726561746572207468616e207a65726f60448201526064016103ff565b3360009081526004602090815260408083206001600160a01b03871684528252808320848452909152902054821115610ef25760405162461bcd60e51b815260206004820152602f60248201527f5969656c6441676772656761746f723a20496e73756666696369656e7420646560448201526e706f73697465642062616c616e636560881b60648201526084016103ff565b60008181526002602052604090206001600482015460ff166002811115610f1b57610f1b611acf565b03610f9957600181015460405163d1d8e6b560e01b8152600481018590523060248201526001600160a01b039091169063d1d8e6b5906044016020604051808303816000875af1158015610f73573d6000803e3d6000fd5b505050506040513d601f19601f82011682018060405250810190610f9791906120da565b505b3360009081526004602090815260408083206001600160a01b0388168452825280832085845290915281208054859290610fd49084906121db565b90915550610fee90506001600160a01b038516338561186d565b6040805184815242602082015283916001600160a01b0387169133917f0373e649c2cd6407bd569d5c66304cce4b4977c361734b811045f83c7bfe8c8b910160405180910390a45061062e60018055565b60008181526002602052604081206001600482015460ff16600281111561106857611068611acf565b036110f2578060010160009054906101000a90046001600160a01b03166001600160a01b0316633bcfc4b86040518163ffffffff1660e01b8152600401602060405180830381865afa9250505080156110de575060408051601f3d908101601f191682019092526110db91810190612129565b60015b6110eb5750600092915050565b9392505050565b6000600482015460ff16600281111561110d5761110d611acf565b03611180578060010160009054906101000a90046001600160a01b03166001600160a01b031663d2cbf7ad6040518163ffffffff1660e01b8152600401602060405180830381865afa9250505080156110de575060408051601f3d908101601f191682019092526110db91810190612129565b60405162461bcd60e51b8152602060048201526015602482015274556e6b6e6f776e207374726174656779207479706560581b60448201526064016103ff565b50919050565b6111ce61189e565b600081815260026020526040902060040154610100900460ff1661122a5760405162461bcd60e51b81526020600482015260136024820152725374726174656779206e6f742061637469766560681b60448201526064016103ff565b600081815260026020526040808220600401805461ff00191690555182917fd75105a2aa4d0e369051dafafb95bda6d8633cb084ab8f4db5ebc096f880f54591a250565b61127661189e565b6040518060c00160405280866001600160a01b03168152602001856001600160a01b031681526020018481526020018381526020018260028111156112bd576112bd611acf565b81526001602091820181905260008981526002808452604091829020855181546001600160a01b03199081166001600160a01b03928316178355958701519482018054909616941693909317909355830151909182019061131e908261223c565b5060608201516003820155608082015160048201805460ff1916600183600281111561134c5761134c611acf565b021790555060a09190910151600490910180549115156101000261ff0019909216919091179055600380546001810182556000919091527fc2575a0e9e593c00f959f8c92f12db2869c3395a3b0502d05e2516446f71f85b018690556040516001600160a01b0386169087907f43346780176ce4554748b86fe802da142cf51f130fcdd37ff34af6b624c85d14906113e9908890889087906122fc565b60405180910390a3505050505050565b60026020819052600091825260409091208054600182015492820180546001600160a01b03928316949092169291611430906120f5565b80601f016020809104026020016040519081016040528092919081815260200182805461145c906120f5565b80156114a95780601f1061147e576101008083540402835291602001916114a9565b820191906000526020600020905b81548152906001019060200180831161148c57829003601f168201915b50505050600383015460049093015491929160ff80821692506101009091041686565b6040805160c08101825260008082526020820181905260609282018390529181018290526080810182905260a0810191909152600082815260026020818152604092839020835160c08101855281546001600160a01b0390811682526001830154169281019290925291820180549193840191611548906120f5565b80601f0160208091040260200160405190810160405280929190818152602001828054611574906120f5565b80156115c15780601f10611596576101008083540402835291602001916115c1565b820191906000526020600020905b8154815290600101906020018083116115a457829003601f168201915b505050918352505060038201546020820152600482015460409091019060ff1660028111156115f2576115f2611acf565b600281111561160357611603611acf565b815260049190910154610100900460ff16151560209091015292915050565b61162a61189e565b6001600160a01b03811661165457604051631e4fbdf760e01b8152600060048201526024016103ff565b61165d816118cb565b50565b606060008267ffffffffffffffff81111561167d5761167d611d82565b6040519080825280602002602001820160405280156116b657816020015b6116a361198c565b81526020019060019003908161169b5790505b50905060005b838110156117765730631738e2178686848181106116dc576116dc612142565b905060200201356040518263ffffffff1660e01b815260040161170191815260200190565b600060405180830381865afa15801561171e573d6000803e3d6000fd5b505050506040513d6000823e601f3d908101601f191682016040526117469190810190612392565b82828151811061175857611758612142565b6020026020010181905250808061176e90612158565b9150506116bc565b509392505050565b606060038054806020026020016040519081016040528092919081815260200182805480156117cc57602002820191906000526020600020905b8154815260200190600101908083116117b8575b5050505050905090565b6002600154036117f957604051633ee5aeb560e01b815260040160405180910390fd5b6002600155565b6040516001600160a01b0384811660248301528381166044830152606482018390526118679186918216906323b872dd906084015b604051602081830303815290604052915060e01b6020820180516001600160e01b03838183161783525050505061191b565b50505050565b6040516001600160a01b0383811660248301526044820183905261062e91859182169063a9059cbb90606401611835565b6000546001600160a01b03163314610db45760405163118cdaa760e01b81523360048201526024016103ff565b600080546001600160a01b038381166001600160a01b0319831681178455604051919092169283917f8be0079c531659141344cd1fd0a4f28419497f9722a3daafe3b4186f6b6457e09190a35050565b600080602060008451602086016000885af18061193e576040513d6000823e3d81fd5b50506000513d91508115611956578060011415611963565b6001600160a01b0384163b155b1561186757604051635274afe760e01b81526001600160a01b03851660048201526024016103ff565b6040805161012081018252600080825260208201819052606092820183905291810182905290608082019081526020016000151581526020016000815260200160008152602001600081525090565b6001600160a01b038116811461165d57600080fd5b600080600060608486031215611a0557600080fd5b8335611a10816119db565b95602085013595506040909401359392505050565b600080600060608486031215611a3a57600080fd5b8335611a45816119db565b92506020840135611a55816119db565b929592945050506040919091013590565b600060208284031215611a7857600080fd5b5035919050565b60005b83811015611a9a578181015183820152602001611a82565b50506000910152565b60008151808452611abb816020860160208601611a7f565b601f01601f19169290920160200192915050565b634e487b7160e01b600052602160045260246000fd5b60038110611b0357634e487b7160e01b600052602160045260246000fd5b9052565b600061012060018060a01b0383511684526020830151611b3260208601826001600160a01b03169052565b506040830151816040860152611b4a82860182611aa3565b915050606083015160608501526080830151611b696080860182611ae5565b5060a0830151611b7d60a086018215159052565b5060c0838101519085015260e080840151908501526101009283015192909301919091525090565b6020815260006110eb6020830184611b07565b60008083601f840112611bca57600080fd5b50813567ffffffffffffffff811115611be257600080fd5b6020830191508360208260051b8501011115611bfd57600080fd5b9250929050565b600080600060408486031215611c1957600080fd5b8335611c24816119db565b9250602084013567ffffffffffffffff811115611c4057600080fd5b611c4c86828701611bb8565b9497909650939450505050565b6020808252825182820181905260009190848201906040850190845b81811015611cbe57611cab8385518051825260208101516020830152604081015160408301526060810151151560608301525050565b9284019260809290920191600101611c75565b50909695505050505050565b600060208284031215611cdc57600080fd5b81356110eb816119db565b60008060408385031215611cfa57600080fd5b8235611d05816119db565b946020939093013593505050565b81518152602080830151908201526040808301519082015260608083015115159082015260808101610d48565b600080600060608486031215611d5557600080fd5b833592506020840135611d67816119db565b91506040840135611d77816119db565b809150509250925092565b634e487b7160e01b600052604160045260246000fd5b604051610120810167ffffffffffffffff81118282101715611dbc57611dbc611d82565b60405290565b604051601f8201601f1916810167ffffffffffffffff81118282101715611deb57611deb611d82565b604052919050565b600067ffffffffffffffff821115611e0d57611e0d611d82565b50601f01601f191660200190565b6003811061165d57600080fd5b8035611e3381611e1b565b919050565b60008060008060008060c08789031215611e5157600080fd5b863595506020870135611e63816119db565b94506040870135611e73816119db565b9350606087013567ffffffffffffffff811115611e8f57600080fd5b8701601f81018913611ea057600080fd5b8035611eb3611eae82611df3565b611dc2565b8181528a6020838501011115611ec857600080fd5b8160208401602083013760006020838301015280955050505060808701359150611ef460a08801611e28565b90509295509295509295565b6001600160a01b0387811682528616602082015260c060408201819052600090611f2c90830187611aa3565b9050846060830152611f416080830185611ae5565b82151560a0830152979650505050505050565b60208152600060018060a01b0380845116602084015280602085015116604084015250604083015160c06060840152611f9060e0840182611aa3565b9050606084015160808401526080840151611fae60a0850182611ae5565b5060a0840151151560c08401528091505092915050565b60008060208385031215611fd857600080fd5b823567ffffffffffffffff811115611fef57600080fd5b611ffb85828601611bb8565b90969095509350505050565b6000602080830181845280855180835260408601915060408160051b870101925083870160005b8281101561205c57603f1988860301845261204a858351611b07565b9450928501929085019060010161202e565b5092979650505050505050565b6020808252825182820181905260009190848201906040850190845b81811015611cbe57835183529284019291840191600101612085565b634e487b7160e01b600052601160045260246000fd5b80820180821115610d4857610d486120a1565b80518015158114611e3357600080fd5b6000602082840312156120ec57600080fd5b6110eb826120ca565b600181811c9082168061210957607f821691505b6020821081036111c057634e487b7160e01b600052602260045260246000fd5b60006020828403121561213b57600080fd5b5051919050565b634e487b7160e01b600052603260045260246000fd5b60006001820161216a5761216a6120a1565b5060010190565b60006080828403121561218357600080fd5b6040516080810181811067ffffffffffffffff821117156121a6576121a6611d82565b80604052508251815260208301516020820152604083015160408201526121cf606084016120ca565b60608201529392505050565b81810381811115610d4857610d486120a1565b601f82111561062e57600081815260208120601f850160051c810160208610156122155750805b601f850160051c820191505b8181101561223457828155600101612221565b505050505050565b815167ffffffffffffffff81111561225657612256611d82565b61226a8161226484546120f5565b846121ee565b602080601f83116001811461229f57600084156122875750858301515b600019600386901b1c1916600185901b178555612234565b600085815260208120601f198616915b828110156122ce578886015182559484019460019091019084016122af565b50858210156122ec5787850151600019600388901b60f8161c191681555b5050505050600190811b01905550565b6001600160a01b038416815260606020820181905260009061232090830185611aa3565b905061232f6040830184611ae5565b949350505050565b8051611e33816119db565b600082601f83011261235357600080fd5b8151612361611eae82611df3565b81815284602083860101111561237657600080fd5b61232f826020830160208701611a7f565b8051611e3381611e1b565b6000602082840312156123a457600080fd5b815167ffffffffffffffff808211156123bc57600080fd5b9083019061012082860312156123d157600080fd5b6123d9611d98565b6123e283612337565b81526123f060208401612337565b602082015260408301518281111561240757600080fd5b61241387828601612342565b6040830152506060830151606082015261242f60808401612387565b608082015261244060a084016120ca565b60a082015260c0838101519082015260e08084015190820152610100928301519281019290925250939250505056fea2646970667358221220469fd2a77231e8168cc7fde50ecf543e047a014c92116333c25919c53cc2ecb864736f6c63430008140033",
  "linkReferences": {},
  "deployedLinkReferences": {}
}